:020000040800F2
:1000000000000220010A0008FD090008814F0008D5
:10001000FD090008FD090008FD09000800000000B6
:10002000000000000000000000000000FD090008C2
:10003000FD09000800000000FD090008054F000848
:10004000FD090008FD090008FD090008FD09000878
:10005000FD090008FD090008FD090008FD09000868
:10006000FD090008FD090008FD0900088147000896
:100070008D470008FD09000899470008A5470008BA
:10008000FDF10008B13C0008FD090008FD09000869
:10009000FD090008FD090008FD090008FD09000828
:1000A000FD090008FD090008FD090008FD09000818
:1000B000994D0008A54D0008B14D0008E53C000829
:1000C000FD090008F13C0008FD09000819E20008DC
:1000D00025E2000831F000085DF0000891F000080A
:1000E000FD090008FD09000800000000FD090008E6
:1000F000FD090008FD090008FD090008FD090008C8
:10010000FD090008FD090008BD4D000831E20008A6
:10011000C5F00008F9F00008FD090008FD09000815
:10012000FD090008FD09000855E2000889E2000801
:1001300031F20008FD090008FD090008FD0900086A
:1001400000000000000000000000000000000000AF
:10015000FD090008FD090008FD0900082DF100084F
:10016000FD3C0008FD090008154F0008394F000844
:10017000FD0900085D4F0008FD090008FD090008A1
:10018000FD090008FD09000861F1000895F100086B
:100190003DE2000849E20008FD090008FD090008E9
:1001A000FD090008FD090008FD090008FD09000817
:1001B000A1440008FD090008FD090008FD09000828
:1001C000FD090008FD090008D5D90008E1D900089B
:1001D000FD090008EDD90008FD090008FD09000827
:1001E000FD090008FD090008FD090008FD090008D7
:1001F000FD090008FD090008FD090008FD090008C7
:10020000FD090008FD090008FD090008FD090008B6
:10021000FD090008FD090008FD090008FD090008A6
:10022000FD090008FD090008FD09000800000000A4
:10023000FD090008FD09000800000000FD09000894
:10024000FD090008FD090008FD090008FD09000876
:10025000FD090008FD090008FD090008FD09000866
:10026000FD090008FD090008FD090008FD09000856
:10027000FD090008FD090008C9F1000800000000A0
:10028000FD090008FD090008FD0900080000000044
:0802900000000000FD09000858
:1002A00010B5054C237833B9044B13B10448AFF3B0
:1002B00000800123237010BDA00600240000000070
:1002C000A852010808B5034B1BB103490348AFF31B
:1002D000008008BD00000000A4060024A852010808
:1002E00001F0FF01102A2BDB10F0070F08D010F8E7
:1002F000013B013A8B422DD010F0070F42B3F6D1EB
:10030000F0B441EA012141EA014122F007047FF003
:1003100000070023F0E80256083C85EA010586EA5A
:10032000010685FA47F5A3FA87F586FA47F6A5FA96
:1003300087F68EB9EED1F0BC01F0FF0102F00702A2
:1003400032B110F8013B013A83EA010313B1F8D14D
:100350000020704701387047002D06BF354603382E
:10036000073815F0010F07D1013015F4807F02BF67
:10037000013015F4C03F0130F0BC0138704700BFB8
:1003800081F0004102E000BF83F0004330B54FEA46
:1003900041044FEA430594EA050F08BF90EA020FB3
:1003A0001FBF54EA000C55EA020C7FEA645C7FEA46
:1003B000655C00F0E2804FEA5454D4EB5555B8BF69
:1003C0006D420CDD2C4480EA020281EA030382EADA
:1003D000000083EA010180EA020281EA0303362D6C
:1003E00088BF30BD11F0004F4FEA01314FF4801C3F
:1003F0004CEA113102D0404261EB410113F0004F51
:100400004FEA03334CEA133302D0524263EB430307
:1004100094EA050F00F0A780A4F10104D5F1200EA5
:100420000DDB02FA0EFC22FA05F2801841F1000100
:1004300003FA0EF2801843FA05F359410EE0A5F1D4
:1004400020050EF1200E012A03FA0EFC28BF4CF005
:10045000020C43FA05F3C01851EBE37101F00045BB
:1004600007D54FF0000EDCF1000C7EEB00006EEBC8
:100470000101B1F5801F1BD3B1F5001F0CD3490852
:100480005FEA30004FEA3C0C04F101044FEA4452A9
:1004900012F5800F80F09A80BCF1004F08BF5FEA30
:1004A000500C50F1000041EB045141EA050130BD10
:1004B0005FEA4C0C404141EB0101013C28BFB1F522
:1004C000801FE9D291F0000F04BF01460020B1FA6D
:1004D00081F308BF2033A3F10B03B3F120020CDA40
:1004E0000C3208DD02F1140CC2F10C0201FA0CF01E
:1004F00021FA02F10CE002F11402D8BFC2F1200C83
:1005000001FA02F120FA0CFCDCBF41EA0C01904038
:10051000E41AA2BF01EB0451294330BD6FEA040481
:100520001F3C1CDA0C340EDC04F11404C4F120026C
:1005300020FA04F001FA02F340EA030021FA04F37E
:1005400045EA030130BDC4F10C04C4F1200220FAD5
:1005500002F001FA04F340EA0300294630BD21FA13
:1005600004F0294630BD94F0000F83F4801306BFD9
:1005700081F480110134013D4EE77FEA645C18BFCD
:100580007FEA655C29D094EA050F08BF90EA020F64
:1005900005D054EA000C04BF1946104630BD91EA5C
:1005A000030F1EBF0021002030BD5FEA545C05D15F
:1005B0004000494128BF41F0004130BD14F580049E
:1005C0003CBF01F5801130BD01F0004545F0FE4112
:1005D00041F470014FF0000030BD7FEA645C1ABF47
:1005E000194610467FEA655C1CBF0B46024650EA7E
:1005F000013406BF52EA033591EA030F41F40021AA
:1006000030BD00BF90F0000F04BF0021704730B52F
:100610004FF4806404F132044FF000054FF0000104
:1006200050E700BF90F0000F04BF0021704730B5C5
:100630004FF4806404F1320410F0004548BF40429A
:100640004FF000013EE700BF42004FEAE2014FEAEF
:1006500031014FEA02701FBF12F07F4393F07F4FCA
:1006600081F06051704732F07F4208BF704793F0CD
:100670007F4F04BF41F40021704730B54FF46074E0
:1006800001F0004521F000411CE700BF50EA0102E3
:1006900008BF704730B54FF000050AE050EA01028C
:1006A00008BF704730B511F0004502D5404261EBFC
:1006B00041014FF4806404F132045FEA915C3FF43D
:1006C000D8AE4FF003025FEADC0C18BF03325FEADA
:1006D000DC0C18BF033202EBDC02C2F1200300FA8B
:1006E00003FC20FA02F001FA03FE40EA0E0021FAB0
:1006F00002F11444BDE600BF53B94AB9002908BF4E
:1007000000281CBF4FF0FF314FF0FF3000F074B9EC
:10071000ADF1080C6DE904CE00F006F8DDF804E058
:10072000DDE9022304B070472DE9F047089D044637
:100730008E46002B4DD18A42944669D9B2FA82F294
:1007400052B101FA02F3C2F1200120FA01F10CFAD0
:1007500002FC41EA030E94404FEA1C48210CBEFB08
:10076000F8F61FFA8CF708FB16E341EA034306FB91
:1007700007F199420AD91CEB030306F1FF3080F020
:100780001F81994240F21C81023E63445B1AA4B26D
:10079000B3FBF8F008FB103344EA034400FB07F70F
:1007A000A7420AD91CEB040400F1FF3380F00A8150
:1007B000A74240F207816444023840EA0640E41B45
:1007C00000261DB1D4400023C5E900433146BDE8F1
:1007D000F0878B4209D9002D00F0EF800026C5E993
:1007E000000130463146BDE8F087B3FA83F6002EAB
:1007F0004AD18B4202D3824200F2F980841A61EB23
:10080000030301209E46002DE0D0C5E9004EDDE740
:1008100002B9FFDEB2FA82F2002A40F09280A1EB28
:100820000C014FEA1C471FFA8CFE0126200CB1FB7D
:10083000F7F307FB131140EA01410EFB03F0884276
:1008400008D91CEB010103F1FF3802D2884200F203
:10085000CB804346091AA4B2B1FBF7F007FB101195
:1008600044EA01440EFB00FEA64508D91CEB040433
:1008700000F1FF3102D2A64500F2BB800846A4EB8E
:100880000E0440EA03409CE7C6F12007B34022FA79
:1008900007FC4CEA030C20FA07F401FA06F31C43A8
:1008A000F9404FEA1C4900FA06F3B1FBF9F8200CB5
:1008B0001FFA8CFE09FB181140EA014108FB0EF0FB
:1008C000884202FA06F20BD91CEB010108F1FF3A4B
:1008D00080F08880884240F28580A8F10208614457
:1008E000091AA4B2B1FBF9F009FB101144EA014165
:1008F00000FB0EFE8E4508D91CEB010100F1FF3410
:100900006CD28E456AD90238614440EA0840A0FBA7
:100910000294A1EB0E01A142C846A64656D353D07D
:100920005DB1B3EB080261EB0E0101FA07F722FAA1
:1009300006F3F1401F43C5E9007100263146BDE8CA
:10094000F087C2F12003D8400CFA02FC21FA03F32D
:10095000914001434FEA1C471FFA8CFEB3FBF7F0AE
:1009600007FB10360B0C43EA064300FB0EF69E42D3
:1009700004FA02F408D91CEB030300F1FF382FD26C
:100980009E422DD9023863449B1B89B2B3FBF7F614
:1009900007FB163341EA034106FB0EF38B4208D9ED
:1009A0001CEB010106F1FF3816D28B4214D9023E2E
:1009B0006144C91A46EA004638E72E46284605E74C
:1009C0000646E3E61846F8E64B45A9D2B9EB02081D
:1009D00064EB0C0E0138A3E74646EAE7204694E7AD
:1009E0004046D1E7D0467BE7023B614432E73046E0
:1009F00009E76444023842E7704700BFFEE700BFE2
:100A00000B480C4A904203D0121A0B4913F0BCF861
:100A10000A480B4A904203D0121A002113F0C2F880
:100A200004F006FD13F084F800F0B2FBFEE700BF0F
:100A300000000024A0060024DC520108A0060024C7
:100A40007C000124704700BF704700BF704700BFA3
:100A5000704700BFAAB32DE9F041174682B00646A1
:100A60000C460025DFF8608007E0023523606360F4
:100A70000836AF4204F1080420D998F8001000238A
:100A80000129F2D101AA69460E48023500F0FEFEA6
:100A900096ED007ADDED007AAF42DDED016A06F1F8
:100AA000080637EE277A04F1080404ED027A56EDC1
:100AB000017A77EEA67A44ED017ADED802B0BDE87D
:100AC000F0817047589800240400002403282DE981
:100AD000F84F08D0DFF8BC90B9F800100131A9F840
:100AE0000010BDE8F88F254CDFF8A8902368B9F80E
:100AF000001003F10052224D128892B28A422A80DD
:100B0000ECD1DFF894801F4F1F4E0BE001F090F8FE
:100B10002368B9F8001003F10052128892B2914292
:100B20002A80DBD1981C194AD91CDFF870A02060FC
:100B30009A5C2160191D02F07F0C02F0800B5FFAB5
:100B400082FE1348A8F800B0A7F800C013F80A20E6
:100B5000216061461346D2B2FF2B338006D01EF0CF
:100B6000800FD3D10A4801F0D1F8D1E700224FF429
:100B70008033A9F800202360BDE8F88F0C00002422
:100B80004C9800244A9800244E980024020000202B
:100B9000589800244498002448980024030000201A
:100BA000B9B30144F0B51546A5B002F10807441EDB
:100BB0004E1E01E0A6422AD014F8011F6A463846AC
:100BC00002F09AFB0028F5D0D5F8A8C0902269461B
:100BD000D5E92B03C31A00F1010E00EBC00048BF9A
:100BE00063440CF1FF3C9C45E4D0D5F8A430C5F833
:100BF000ACE003EB001012F0C7FFD5E92A239342C3
:100C0000A3EB020328BFC5F8AC30A642D4D125B06F
:100C1000F0BD7047054B188808B1FFF757BF04496E
:100C20004FF48032034B08801A60704746980024C6
:100C3000449800240C00002400B500F2844300F224
:100C4000046E3033002220494FF0000C734543F806
:100C5000302C43F82C2C43F8281C43F8242C43F860
:100C6000201C43F81C1C43F8181C43F8142C43F8B0
:100C7000102C43F80C2C03F804CC03F803CCE0D17F
:100C800000F2847E303300220F494FF0000C734590
:100C900043F8302C43F82C2C43F8281C43F8242C20
:100CA00043F8201C43F81C1C43F8181C43F8142C70
:100CB00043F8102C43F80C2C03F804CC03F803CCB5
:100CC000E0D15DF804FB00BF000080BF134B30B4DF
:100CD0001A68134C02F10055B4F800C0A5F800C022
:100CE000951C1D600F4D50551A680F4D501C186013
:100CF0000E4811541A68511CA94219600CD9218858
:100D000011524FF6FF700A495052002209484FF421
:100D1000803122800280196030BC70470C000024B2
:100D20004498002402000020F8FF07000100002082
:100D3000030000204698002484B0F0B583B008ACCE
:100D400084E80F009DF820309DF828409DF8292068
:100D5000062B0CD8DFE803F041040B230B0B10002B
:100D6000B04B93F88930112B4FD08B424DD003B04C
:100D7000BDE8F04004B07047AA4B93F88930112BBE
:100D800001D08B42F3D1A4F50054A64804EBC21461
:100D900021B203B0BDE8F04004B000F0C5BF013C93
:100DA000182CE4D8DFE814F03C005C00660070000A
:100DB0007C0088009800A900B500C100CD00D900D2
:100DC000E500F100FD0009015A013C002D014E0132
:100DD00015011C01660123015100924B93F88930E3
:100DE000112B01D08B42C2D18F4B1B88012B00F0FD
:100DF000988121468B4800F089FF00218B4803B081
:100E0000BDE8F04004B001F063B8874B1B88012BAC
:100E100000F07F812146834800F00AFF0121EDE7C1
:100E200007EE902ADFED866A9FED817AB8EE676A59
:100E30007C48C6EE267A67EE877AC0ED207A03B04A
:100E4000BDE8F04004B000F0F7BC7A4A00217648D3
:100E50000324794B11804FF4803204801A6086E7B6
:100E60005209032A00F21D81DFE812F030012C0143
:100E7000280118015209032A00F21381DFE812F059
:100E8000450141013D01390107EE902A9FED6C7A41
:100E9000644BF8EE676AC6EE877AC3ED027A66E7BE
:100EA00007EE902A9FED657A5E4BF8EE676AC6EE14
:100EB000877AC3ED067A5AE707EE902ADFED606A7B
:100EC000B7EE007A574BB8EE676AC6EE267A77EE31
:100ED000877AC3ED077A4AE707EE902A9FED587AA2
:100EE0005048F8EE676AC6EE877AC0ED0D7A03B017
:100EF000BDE8F04004B000F03BBC07EE902A9FED47
:100F0000507A4848F8EE676AC6EE877AC0ED0E7AE6
:100F1000EDE707EE902A9FED4A7A4248F8EE676ABD
:100F2000C6EE877AC0ED0F7AE1E707EE902A9FEDD3
:100F3000447A3C48F8EE676AC6EE877AC0ED107ACC
:100F4000D5E707EE902A9FED3E7A3648F8EE676ABD
:100F5000C6EE877AC0ED097AC9E707EE902A9FEDC1
:100F6000387A3048F8EE676AC6EE877AC0ED0A7ABA
:100F7000BDE707EE902A9FED327A2A48F8EE676ABD
:100F8000C6EE877AC0ED0B7AB1E707EE902A9FEDA7
:100F90002C7A2448F8EE676AC6EE877AC0ED0C7AA0
:100FA000A5E707EE902A9FED267A1E4BF8EE676ABA
:100FB000C6EE877AC3ED1D7AD9E607EE902A9FED3B
:100FC000207A184BF8EE676AC6EE877AC3ED1E7A70
:100FD000CDE65209032A6FD8DFE802F081867C6AE9
:100FE00011490120134B002208801A80BFE600231C
:100FF0000D4C10484FF480310F4A2380038011605C
:10100000B5E607EE902A9FED0E7A0648F8EE676A7D
:10101000C6EE877AC0ED1B7A03B0BDE8F04004B09D
:1010200000F018BC5898002446980024BC06002400
:1010300000A08C46449800240C00002400007F434C
:101040000000FE4207EE902A1FED037A3748F8EEC3
:10105000676AC6EE877AC0ED1C7ADDE707EE902A54
:101060009FED337A3148F8EE676AC6EE877AC0EDB5
:101070001F7AE4E62F4B4FF6FF7E2F4A00211868B7
:10108000168800F100552D4F2D4C2E8020F807E0DA
:101090004FF4803021801180186068E6234B0322D2
:1010A0001A71224803B0BDE8F04004B000F04EBB16
:1010B0001E4B032283F868201C48ADE71B4B02221D
:1010C0001A71EEE7194B01221A71EAE7174B002259
:1010D0001A71E6E7154B022283F86820ECE7134B00
:1010E000002283F86820E7E7104B012283F868208C
:1010F000E2E70E4B03221A75D3E70C4B02221A7556
:10110000CFE70A4B01221A75CBE7084B00221A756C
:10111000C7E7114644F080000192FFF7D7FD019A1E
:1011200078E600212046FFF7D1FD62E658980024BA
:101130000000FE420C00002444980024020000201D
:101140004698002410B5032286B000244FF0FF31EA
:101150000123029201948DF81430CDE9034104F08B
:101160001BF9094B02A9A3FB0030C009049001A898
:1011700003F02AFE2246054901A803F09FFE01A8BC
:1011800003F08AFE06B010BD89888888150C000817
:1011900080B50121ECB05F48002600F059FF012125
:1011A0005C4800F075FE5C4F5A4800F06DFE5948EF
:1011B00087ED000A00F088FE584A052309215548AA
:1011C00082ED000A01228DF880308DF88C200822F3
:1011D0008DF882308DF884308DF886308DF8883027
:1011E00007238DF881200A228DF8853006238DF89B
:1011F000831020A98DF889208DF887308DF88A30EA
:101200008DF88B30464D8DF88D6002F0C5FF454856
:1012100000F0E2F8434800F029FE4FF440732846FE
:10122000414C2B8050F8041B02F0A8F905F108008E
:1012300002F01AF9642003F013FF31463B4A2046BE
:1012400012F0B0FCD7ED007A9FED397A4BF67F3380
:1012500044F8086C24AE67EE877ABDEEE77A17EEA5
:10126000101AF8EEC76A994277EEE67A28BF194657
:1012700044ED037A44F8041CFFF764FF2D49254828
:1012800000F0FEFD2C4802F0ADF9B0B3902248A862
:10129000D5E92B341F1B04EBC40C24D4002FF1D050
:1012A000A34224D0D5F8A430013403EB0C1112F082
:1012B0006BFCD5F8A830C5F8B04048A99C42A4EB17
:1012C00003044FF09002304628BFC5F8B04012F03A
:1012D0005BFC28A98022684612F056FC96E80F00B5
:1012E000FFF72AFDD2E7D5F8A8100F44D6E79022E1
:1012F0000021304612F056FCEBE7104802F0B4F83B
:101300000D4802F073F9064A0D49101D02F060F90C
:10131000BCE700BFBC060024549800245098002469
:1013200000070024589800240C0000C000EE0200C2
:101330000AD7233C550A00080407002408070024A4
:10134000A10B000810B51A4800241A4A1A49046073
:1013500044610462C46311F065FE1848184B4FF4F1
:1013600040714460C0F89C3040F20F73016000F19E
:10137000B401C0F8A03040F20113C0F8AC40C0F88E
:10138000B040104C0B4AC0E929130F4911F04AFE36
:101390002046FFF751FC074A0C49204611F042FE57
:1013A000044A0B490B48BDE8104011F03BBE00BF9A
:1013B000BC06002400000024450A000800070024A1
:1013C0000080707F589800244D0A0008490A0008E0
:1013D000510A0008000000C02DE9F047054600F55D
:1013E0008A7400F2844600F2847800F51D792DEDB0
:1013F000068B82B046E0F4EE487AF1EE10FA78FE01
:10140000277A06F5C070C6ED007A012195ED000A35
:10141000019011F013F895ED0D0A0121019811F0DA
:101420007DF895ED0E0A0221019811F077F895EDFF
:10143000100A0421019811F071F8D5ED0F7AF5EE3C
:10144000C07AF1EE10FA40F2B080B7EE007AF4EE16
:10145000477AF1EE10FA77FE277A4046C6ED607AB9
:1014600095ED000A08F1440811F0F8FA2C34D5F88B
:10147000803030364C4548F83C3CEB6F48F8403CF7
:1014800000F09680B7EE008AD5ED007AF6EE008A7D
:10149000DFEDAA9ADFEDAAAA012788EE277AC4ED2C
:1014A000047A2046C4ED029AC4ED018A04F5B07AAC
:1014B000C4ED038AC4ED06AAB0EE690A9FEDA1AAA5
:1014C00088FEAA9A89FE489A84ED057A11F0C0FA3E
:1014D00084F8297084ED070A204684F82870B0EE5D
:1014E0004A0A2B7984ED018A082B84ED02AA28BFD1
:1014F0000023237011F0ACFA84ED039A84ED070AFF
:101500005046D5ED007AB0EE690AC4ED5A9A88EEDD
:10151000277AC4ED5C7AC4ED598AC4ED5B8AC4EDC8
:101520005EAACDF804A084ED5D7A11F091FA84F8FA
:10153000897184F8887184ED5F0A2B7D84ED598A66
:10154000082B019828BF002384F8603195ED060A26
:1015500020EE0A0A84ED5A0A11F07AFA394630462A
:1015600084ED5F0A84ED5B9A95ED000A10F066FF4A
:1015700095ED090A3946304610F0D0FF95ED0A0A7C
:101580000221304610F0CAFF95ED0C0A04213046C6
:1015900010F0C4FFD5ED0B7AF4EEEA7AF1EE10FA12
:1015A0003FF629AFDFED687A2BE7DFED677A54E786
:1015B000F7EE008AD5ED007A4FF07C569FED5F8AFA
:1015C0004FF0000805F5757088EEA77AC5EDF97A39
:1015D00085EDF78A40F20117C5F8D86305F58064F8
:1015E000C5F8E063C5F8EC83B0EE480A019085EDDC
:1015F000FA7A11F02DFA95F84430D5ED127A082BCD
:10160000019885EDFC0AB0EE670A28BF0023C5EDFE
:10161000F77AA5F8FC7385F8D43311F019FAB0EE17
:10162000407AD5ED007A2046EB6CB0EE480A85EDA5
:10163000FC7A88EEA77AC5F8D833C4ED047A84ED35
:10164000028A6660E660C4F8188084ED057A11F0BD
:10165000FFF984ED070A95F85030204695ED150AFC
:10166000082BA5F8287428BF002385F8003484EDE2
:10167000020A11F0EDF984ED070AAB6DB0EE480AED
:10168000636005F22C44D5ED007A204684ED028A91
:1016900088EEA77AC4ED047A6660E660C4F8188024
:1016A00084ED057A11F0D4F984ED070A95F85C30E1
:1016B000204695ED180A082BA5F8547428BF00237E
:1016C00085F82C3484ED020A11F0C2F984ED070A82
:1016D0006B6EB0EE480A636005F58B64D5ED007A59
:1016E000204684ED028A88EEA77AC4ED047A66600B
:1016F000E660C4F8188084ED057A11F0A9F984ED4C
:10170000070A95F86830204695ED1B0A082BA5F8C6
:10171000807428BF002385F8583484ED020A11F044
:1017200097F9002384ED070A2A6F626085F88A30F2
:1017300002B0BDEC068BBDE8F08700BF0000C842D8
:10174000000000000000DC430AD723BC027900F54A
:10175000B071037D072A88BF0022072B88BF0023B2
:1017600080F814212C3080F848328142F8D170473B
:1017700070B5044682B000F2844500F204662EE0A3
:10178000F4EE477AF1EE10FA77FE277AC5ED607A2B
:101790002846012194ED090A10F0C0FE284694ED78
:1017A0000A0A022110F0BAFE284694ED0C0A042120
:1017B00010F0B4FED4ED0B7AB7EE007AF5EEC07AF5
:1017C000F1EE10FA2BD9F4EE477A2B463035F1EED4
:1017D00010FA77FE277AB542C3ED007A27D005F5D7
:1017E000C07094ED0D0A0121019010F097FE94ED68
:1017F0000E0A0221019810F091FE94ED100A019852
:10180000042110F08BFED4ED0F7AB7EE007AF5EEDE
:10181000C07AF1EE10FAB3D8DFED067AB6E72B46C0
:101820003035DFED047AB542C3ED007AD7D102B08E
:1018300070BD00BF0AD723BCD0F8801000F5F1635B
:10184000C26F00F6A810596043F8442B8342FAD1C6
:10185000704700BF38B5F2EE007A90F8683090ED2E
:101860001B0A00F58B65082B044620EE270A284644
:1018700028BF002384F8583485ED020A11F0E8F8F7
:1018800085ED070A236F6B6038BD00BF2DE9F04F6F
:10189000044600F57570DFF894B304F18B0704F289
:1018A000847604F1940904F58A7A04F204652DED36
:1018B0000A8B85B0DFEDD88ACDE9021210F00EFF59
:1018C00004F58060F0EE40AA10F008FF04F22C400E
:1018D000B0EE40AA10F002FF04F58B60F0EE409AE3
:1018E00010F0FCFE04F19303B0EE409A019329E05E
:1018F00099ED0F7AD4ED217A20EE070AD4ED206A13
:10190000D4ED1D5A39EE0B7A99ED076A60EE277A0D
:10191000A5EEC6BA67EEA67A67EE877A67EE8B7A8F
:101920003046C6ED027AB0EE480A443611F0B2F8FD
:10193000019B78EE808A0AF12C0ABB4205F1300542
:1019400000F02E8117F8012B002A14BF4FF0010878
:101950004FF000080DD007EE902A9FEDB06AB7EE69
:10196000007AF8EE677AC7EE866A77EE667AC9ED96
:10197000087AD4ED1E7AF5EE407AF1EE10FA40F0D6
:10198000A180A5F5C0704146B7EE00BA10F04EFE3A
:1019900094F88820F7EE007AA14B012A504688BFC0
:1019A00099ED107A79EE277A88BF20EE070A27EEA4
:1019B000800A8AED010A8AED590AD9ED187A93ED69
:1019C000008A99ED000A67EEAACA94ED037A27EE21
:1019D000888A9BED00CA30EE070AD4ED06BA27EEDE
:1019E0008CCA67EEABBA30EE080A30EE0C0A30EE65
:1019F0002C0A8AED020A11F02BF88AED070AD4EDC1
:101A0000077A0AF5B072B9EC017A27EE880A104617
:101A10000092A7EE270AA7EE8C0AA7EEAC0AA7EE63
:101A2000AB0A8AED5A0A11F013F88AED5F0AD4ED79
:101A3000046A5046DFED787A7AEE266A76EEA96A75
:101A4000C6FEA76AC6FECB6ACAED036A94ED087AA1
:101A50003AEE077A37EE297A87FE277A87FE4B7AA5
:101A60008AED5B7A10F03AFE009AF0EE40BA10462A
:101A700010F034FE94ED027A414628467BEE477A18
:101A800027EE808AA7EE2B8A10F0D0FD94F88820EC
:101A900002F0FD02012A3FF42BAF94ED217AD4ED40
:101AA000207A20EE070A94ED1D6AD9ED076A39EE17
:101AB0000B7A60EE277AA6EE66BA67EE877A67EE53
:101AC0008B7A2DE7B7EE008A99ED087AD4ED0D6A8E
:101AD0000121284638EE477AB0EE480AA7EEC70A39
:101AE00020EE260A10F01AFDD9ED087AB0EE480A69
:101AF000D4ED1E6A78EE677A94ED0E7A02212846BC
:101B0000A6EEE70A20EE070A10F008FDD9ED087AE4
:101B1000B0EE480AD4ED1E6A78EE677A94ED107A3A
:101B200004212846A6EEE70A20EE070A10F0F6FC8C
:101B3000D9ED087AB0EE480AD4ED1E6A78EE677ADD
:101B400094ED097AA5F5C0700121A6EEE70A009090
:101B500020EE070A10F0E2FCD9ED087AB0EE480A50
:101B6000D4ED1E6A78EE677A94ED0A7A0221009825
:101B7000A6EEE70A20EE070A10F0D0FCD9ED087AAD
:101B800094ED1E7A042178EE677A94ED0C0A0098A1
:101B9000A7EE678A28EE000A10F0C0FC0098F2E673
:101BA000204B4BF6803620494BF67F30F4EE007A1E
:101BB000D3ED006AD3E9014268EEA78A22442044AB
:101BC00003EB8404A1FB02C7551CBF0A06FB1722C6
:101BD00003EB8202D2ED037AA1FB0572A1FB007137
:101BE000920A890A06FB125506FB1101596003EBA4
:101BF000850393ED037A029B37EE677AC4ED038A7F
:101C0000C3ED008A039BE7EE267AC3ED007A05B0A8
:101C1000BDEC0A8BBDE8F08F000000000000A84278
:101C200008000024000000C0F1197605FC0600241D
:101C300070B54FF0080C04462DED048B82B090F87F
:101C40008A30019201330CF1FF3203F0070560196D
:101C50002B4690F88B6046B112F0FF0CF2D184F85D
:101C60008A5002B0BDEC048B70BD07EE901ADFED18
:101C7000249AB2EE089A84F88A50F8EE670A80F83F
:101C80008B10B0EE000ADFED1F8A04EB850570EEC5
:101C9000E90AC0EE890A11F09FFAF0EE407AB0EE40
:101CA000000A67EEA87AC5ED257A94F88A30E11823
:101CB00004EB830291F88B3092ED258A013300EE1C
:101CC000903AF8EEE00A70EEE90AC0EE890A11F0E7
:101CD00083FADDED017ADFED0C6A94F88A30F8EED4
:101CE000677A04EB8304A0EE688A87EEA67A84ED17
:101CF0003D8A84ED357A02B0BDEC048B70BD00BF27
:101D000000008A420000DC430000FE4200F18B0329
:101D1000933013F8012B8A4202D1002203F8012CE0
:101D20008342F6D1704700BF07EE101AF0EE006A4A
:101D3000F7EE007A034BBAEEE97AE7EE667AC3ED86
:101D4000007A70470800002410B50022464C22702B
:101D500091F800C080F804C0D1F804C0C0F808C0F1
:101D6000D1F808C0C0F80CC0D1F80CC0C0F810C041
:101D700091F810C080F814C0D1F814C0C0F818C091
:101D8000D1F818C0C0F81CC0D1F81CC0C0F820C0E1
:101D9000D1F820C0C0F824C0D1F824C0C0F828C0B1
:101DA000D1F828C0C0F82CC0D1F82CC0C0F830C081
:101DB000D1F830C0C0F834C0D1F834C0C0F838C051
:101DC000D1F838C0C0F83CC0D1F83CC0C0F840C021
:101DD00091F840C080F844C0D1F844C0C0F848C071
:101DE000D1F848C0C0F84CC091F84CC080F850C041
:101DF000D1F850C0C0F854C0D1F854C0C0F858C091
:101E000091F858C080F85CC0D1F85CC0C0F860C0E0
:101E1000D1F860C0C0F864C091F864C080F868C0B0
:101E2000D1F868C0C0F86CC0D1F86CC0C0F870C000
:101E3000D1F878C0C0F87CC0D1F87CC0C0F880C0B0
:101E4000D1F880C0C0F884C091F884C080F888C000
:101E500091F8851080F88A2080F88910FFF7BCFA85
:101E60000123237010BD00BF04000024024B03496E
:101E70001B680360FFF768BF54980024100000241B
:101E8000143001F011BA00BF143001F009BA00BFDC
:101E900038B500F1140504462DED028B284601F0FB
:101EA000F1F9284601F0FCF92846B0EE408A01F02D
:101EB000E5F9D0ED007AF8EE677A88EE277ABDEC86
:101EC000028B84ED0E7A38BD90ED0E0A704700BF8C
:101ED000253001F099BD00BF10B540F203338EB03C
:101EE00000244FF60B7240F20341ADF8083009A808
:101EF0000123ADF81020ADF824202246ADF80C10D7
:101F00000094029907940C94CDE90544CDE90A4464
:101F100001F0A2FB04A8012322460399009401F0DA
:101F20009BFB09A801F07EFC10B901200EB010BD8A
:101F300004A801F077FCA0420CBF022020460EB09E
:101F400010BD00BF2DE9F04103239AB00127002402
:101F50000646CDE914373B4BCDE9104340F204531C
:101F6000CDE91647ADF84830FFF7B6FFB842054651
:101F700025D0022845D040F60132334B0DF12C0814
:101F80001894ADF82C200B981997CDF84A3000F032
:101F9000E3F810A906F13C0002F07EFC3020032299
:101FA0004FF07E5341460D930E93CDE90B02F26B39
:101FB00006F1140001F02AF91AB0BDE8F0811023EF
:101FC000214A06A906908DF828300DF12C081F4BE8
:101FD000CDF84A2007930294CDE91804CDE908040E
:101FE00002A801F091FE0823029A03A94046ADF829
:101FF0000C508DF80E40049505930B9400F0ECF80E
:10200000C7E700200121104B0DF12C083A4600943F
:10201000CDF84A304FF60B730C94ADF82C302346B4
:10202000CDE9180140F601314046ADF81810069987
:10203000CDE90D4401F010FB2146404601F0FEFBC6
:10204000A7E700BF04020404040604030704010B0D
:102050002DE9F04704462DED028B82B000294DD0CA
:10206000012140F2011200230091ADF804208DF807
:102070000630364A0127364B04F10409354904F18C
:102080002908626040F20272A36040F60663E160D4
:1020900004F1250AA4F82520A4F82930278284F821
:1020A000277084F82B7003F079F9054602F0DAFF07
:1020B0006946064650BB4DB304F130008DF80670FA
:1020C00003F0F2F8072D3CD104F114052046FFF788
:1020D00039FF284601F0E4F82846B0EE408A01F0C6
:1020E000CDF8D0ED007AF8EE677A88EE277A84EDA5
:1020F0000E7A02B0BDEC028BBDE8F08740F201130E
:1021000000918DF80610ADF80430B2E704F130000C
:1021100003F0CAF8072D11D04946204602F03CF8DA
:102120000EB9002DD0D1504601F092FB404601F08F
:102130008FFB04F1120000F079F9C5E7002EF2D10F
:10214000C2E74946204602F027F8BDE70508050921
:1021500005070506050A060610B584B003460124E6
:10216000ADF8040003A8ADF80C30ADF80E4001F056
:102170006FFB214603A801F047FC204602F070FFE8
:10218000002103A801F040FC204602F069FF21462F
:1021900003A801F039FC04B010BD00BF10B5C2F3B4
:1021A000002384B00C46017C8DF80D2043EA4402E4
:1021B000FA2402238DF80C2003AA009401F03AFEC1
:1021C00018B10124204604B010BD04460A2002F0D4
:1021D00047FF204604B010BD034670B543F8042BFA
:1021E000044684B007C983E80700A37983B91A219C
:1021F0000B461E22FA2523742046ADF80C2002233C
:1022000003AA009501F016FE28B1012004B070BDAC
:102210001B210B46EDE70A2002F022FF4FF4B852D3
:1022200000950223ADF80C20204603AA217C01F082
:1022300001FE0028E9D10A2002F012FF41F20272E9
:1022400000950223ADF80C20204603AA217C01F062
:10225000F1FD0028D9D10A2002F002FF04220095E6
:102260000223ADF80C20204603AA217C01F0E2FDF8
:102270000028CAD10A2002F0F3FE062200950223AC
:10228000ADF80C20204603AA217C01F0D3FD0028E4
:10229000BBD10A2002F0E4FE41F20822009502239D
:1022A000ADF80C20204603AA217C01F0C3FD0028D4
:1022B000ABD10A20064602F0D3FE0095022303AA02
:1022C000217C2046ADF80C6001F0B4FD00289CD1C3
:1022D000304602F0C5FE009522790C232046002AE4
:1022E0008DF80C3003AA4FF0020314BF6221422183
:1022F0008DF80D10217C01F09DFD002885D1304620
:1023000002F0AEFE2279D4E902310B43DBB20AB906
:1023100043F0400362790AB143F020030E22FA250C
:102320008DF80D302046009502238DF80C2003AA6D
:10233000217C01F07FFD00287FF467AF0A2002F0C6
:102340008FFE102200950223ADF80C20204603AA30
:10235000217C01F06FFD00287FF457AF0A2002F0C6
:102360007FFE122100950223ADF80C1003AA217CF8
:10237000204601F05FFD00287FF447AF0A2002F0FD
:102380006FFE012209212046FFF708FF003818BF21
:1023900001203BE7F0B5102387B0234C0122002534
:1023A0000126002702A920460195CDE902234FF41A
:1023B0008052CDE9046709F03DFA642003F0C8FBC0
:1023C00002A94FF480522046CDE904670226102767
:1023D000CDE9026709F02EFA0322102302A9204654
:1023E000CDE9022300230422CDE904234FF48052D7
:1023F00009F020FA40F23223042202A901931023AB
:102400002046CDE90223019A012305924FF4805220
:10241000049309F00FFA40F60601204609F02AFA63
:10242000284607B0F0BD00BF04A200241C4B0022C8
:102430001C494FF0400C30B5054689B00220596068
:1024400007219A601A620124DA620A224FF4006EB0
:10245000DC6006922022CDE9000104200821CDE9AC
:10246000020103201021CDE9040108206946C3E9D7
:1024700004024FF4C072181DC3E906C24FF4805223
:10248000C3E909E209F0ACF938B92846FFF782FF41
:10249000003818BF012009B030BD204609B030BD5A
:1024A00000A2002440410052614A0021D0B51368C7
:1024B0008EB00A91002B40F0B9805E4B01214FF69F
:1024C00083700C2411600221D3F8D4200026032746
:1024D00042F48052C3F8D420D3F8D42002F48052BE
:1024E0000092009AD3F8E02042F01002C3F8E020F6
:1024F000D3F8E02002F010020192019AD3F8E02014
:1025000042F04002C3F8E020D3F8E02002F040029D
:102510000292029AD3F8E02042F00802C3F8E020C9
:10252000D3F8E02002F008020392039AD3F8E020E7
:1025300042F48072C3F8E020D3F8E02002F4807205
:102540000492049AD3F8E02042F08002C3F8E0201D
:10255000D3F8E02002F080020592059AD3F8E0203B
:1025600042F02002C3F8E020D3F8E02002F020027D
:102570000692069AD3F8E02042F00402C3F8E02065
:10258000D3F8E0300C9403F0040307930323079A75
:102590000B93CDE9080108A9274804F07FFB48F216
:1025A0003712022308A925480C94CDE90823CDE968
:1025B0000A6704F073FB4CF20372022308A9204857
:1025C0000C94CDE90823CDE90A6704F067FB40F2DB
:1025D000FF62022308A91B480C94CDE90823CDE92A
:1025E0000A6704F05BFB4FF60C72022308A9164839
:1025F0000C94CDE90823CDE90A6704F04FFB4FF6B0
:102600003F02022308A911480C94CDE90823CDE923
:102610000A6704F043FB2022022308A90A480C940D
:10262000CDE90A67CDE9082304F038FB0EB0D0BD30
:10263000FCA100240044025800100258001802585F
:10264000000C025800200258001C025800140258C6
:102650002DE9F04FDFF8108406460D46144608F1C8
:1026600018002DED028B89B000AF02F00DFAD8F8FA
:10267000183073B3D8F81C30D8F80490002B436995
:102680000BBF4FF0080A4FF0100A4FF0020B4FF04B
:10269000040BB9F1000F2AD0A200EA46012B02F187
:1026A000070222F00702ADEB020D6846ADEB020D0A
:1026B000694600F03F81022B00F0D680002B6FD0DE
:1026C0002246C847D5462437BD46BDEC028BBDE83F
:1026D000F08FD8F81C30002BF5D0D8F804904FF0CC
:1026E000080A4FF0020B4369B9F1000FD4D1FB6126
:1026F000D8F80030BB61002BE5D0D54802F036FA9F
:102700006B46BBF1020F786108EE103AFB6900F0EE
:1027100083816A465146A2EBC40295466200EA46AE
:10272000B2FBFBF2AAEBC40085460AEB8200EE4640
:10273000F861ADEB010DF8690EEB820CC7F810C023
:10274000EC46ADEB010D00EB8201CCF80400CCF8B7
:10275000081001EB82013869E946CCF80C1000EB57
:102760008201CCF800A001EB8202C9E900E0C9E9CE
:102770000212012B00F06483022B00F06C82002B0C
:1027800000F08081620849466046BB69984718EEB0
:10279000103A24379D46BD46BDEC028BBDE8F08F54
:1027A000002C8DD01A46D8ED0C6A9FEDB27A844683
:1027B000331D36F922E00CF1080C07EE90EA33F9EC
:1027C00022E00232F8EEE77A944267EE877A67EE0B
:1027D000A67A4CED027A07EE90EAF8EEE77A67EE19
:1027E000877A67EEA67A4CED017AE2D8F961224643
:1027F000C847984ED8ED0D6A0020F9692B1D9FED52
:102800009E7A9FED9E6ADFED9E5A22E0F4EEC67A34
:10281000F1EE10FAC0F2C88447F6FE72D1ED017AEB
:1028200045F8202066EEA77AF4EEC77AF1EE10FAAA
:1028300040F2F080F4EEC67AF1EE10FAC0F2D584E0
:1028400047F6FE7243F820200230083184427FF6BA
:1028500039AFD1ED007A66EEA77AF4EEC77AF1EEE1
:1028600010FAD3D83246D9E7002C3FF429AFD8ED7F
:102870000C6A84469FED787A0022331D8E4656F806
:1028800022100CF1080C07EE901A53F822100232B5
:10289000F8EEE77A944267EE877A67EEA67A4CED17
:1028A000027A07EE901AF8EEE77A67EE877A67EE1B
:1028B000A67A4CED017AE2D871462246C7F81CE0B0
:1028C000C847664ED8ED0D6A0020F9692B1D9FEDB3
:1028D0006A7A9FED6A6ADFF894C120E0F4EEC67A66
:1028E000F1EE10FAC0F279843246D1ED017A45F862
:1028F000202066EEA77AF4EEC77AF1EE10FA40F2E5
:102900008780F4EEC67AF1EE10FAC0F25E843246A9
:1029100043F820200230083184427FF6D3AED1ED57
:10292000007A66EEA77AF4EEC77AF1EE10FAD5D8FF
:102930006246DAE7002C3FF4C3AED8ED0C6A864657
:102940009FED477A4FF0000C331D56F82C200EF106
:10295000080E82F40002A2F5000207EE902A53F856
:102960002C200CF1020CF8EEE77A82F400026445A8
:10297000A2F5000267EE877A67EEA67A4EED027A3C
:1029800007EE902AF8EEE77A67EE877A67EEA67A86
:102990004EED017AD9D8F9612246C847314ED8EDBB
:1029A0000D6A0020F9692B1D9FED337A9FED336A84
:1029B000DFF8BCC01FE0F4EEC67AF1EE10FAC0F208
:1029C000FC833246D1ED017A45F8202066EEA77AE5
:1029D000F4EEC77AF1EE10FA18D9F4EEC67AF1EEF9
:1029E00010FAC0F2DA83324643F820200230083170
:1029F00084427FF667AED1ED007A66EEA77AF4EEF8
:102A0000C77AF1EE10FAD6D86246DBE76246EBE70A
:102A100062467DE7324615E7A100D64662080731D7
:102A200021F00701ADEB010DEA46ADEB010D694662
:102A3000ADEB0E0D0AEB8200EC46ADEB0E0D01EB9B
:102A40008202F861E946CCE900A0C9E9001290E6EB
:102A500054A200240280FFFF000000300082FF7FAC
:102A60000000003482FF7F0038A20024007E008036
:102A70007E0080FF0000003804FF7FBF04FF7F3F1F
:102A800000FEFF46002C00F0C982BBF1020FD8F80F
:102A9000242000F0FA827969C7F8049002EB810ED5
:102AA0005FED0C5A8A00DCF808100EF104007A6120
:102AB0001A46DCF80C303B61331DD7F810903D61AD
:102AC000FD69C7E902CB8C46834636F92210D8ED62
:102AD0000C7A06EE101A33F9221006EE901A3EF91F
:102AE0002210B8EEC66A07EE101AF8EEE66A3BF955
:102AF0002210B8EEC77A26EE256A66EEA56A27EEA2
:102B0000257A26EE276A66EEA76A27EE277A07EE71
:102B1000901A51080232F8EEE77A0AEB81009442EB
:102B200080ED006A05EB810067EEA57AC0ED006AD2
:102B30000CEB810009EB810180ED007A98ED0C7AB5
:102B400067EE877AC1ED007ABFD8D7F804903D6967
:102B5000D7E902CB60466208BB6949469847D8F876
:102B60002C307A69D8ED0D6A1A441FED3D7A1FEDBD
:102B70003D6A2B1D904602F1040A5FED3F5A002288
:102B8000A84ED9E900EC51E0F4EEC67AF1EE10FA65
:102B9000C0F2C78247F6FE7045F822000CEB010038
:102BA000D0ED007A66EEA77AF4EEC77AF1EE10FA6D
:102BB0004BD9F4EEC67AF1EE10FAC0F2BA8247F6BB
:102BC000FE70BBF1020F43F822002BD0D9F80800A9
:102BD0000844D0ED007A66EEA77AF4EEC77AF1EEFB
:102BE00010FA36D9F4EEC67AF1EE10FAC0F2CD82C0
:102BF00047F6FE7048F82200D9F80C000144D1EDE8
:102C0000007A66EEA77AF4EEC77AF1EE10FA1ED9D2
:102C1000F4EEC67AF1EE10FAC0F2AF8247F6FE711A
:102C20004AF82210023294427FF6B1AD51080EEB01
:102C300081008900D0ED007A66EEA77AF4EEC77ABB
:102C4000F1EE10FAA0D83046A6E73046B9E7314693
:102C5000E6E73046CEE7002C00F0E081BBF1020F42
:102C6000D8F8243000F0E1817A69DCF8081003EB31
:102C7000820EC7F804909300DFED6B5A0EF104004A
:102C800000227B61DCF80C303B61331DD7F81090DB
:102C90003D61FD69C7E902CB8C46834656F8221098
:102CA000D8ED0C7A07EE101A53F82210B8EEC76A66
:102CB00007EE101A5EF82210F8EEC76A07EE101A37
:102CC00026EE256A5BF82210B8EEC77A66EEA56A92
:102CD00026EE276A27EE257A66EEA76A27EE277A80
:102CE00007EE901A51080232F8EEE77A0AEB8100FB
:102CF000944280ED006A05EB810067EEA57AC0ED95
:102D0000006A0CEB810009EB810180ED007A98EDFF
:102D10000C7A67EE877AC1ED007ABFD8D7F80490B5
:102D20003D69D7E902CB60466208BB6949469847CE
:102D3000D8F82C307A69D8ED0D6A1A449FED3E7AA6
:102D40009FED3E6A131D9246DFF8E4C00022FB614E
:102D50002B1D364ED9E9008E4EE0F4EEC67AF1EE28
:102D600010FAC0F2FC81304645F822000EEB01005B
:102D7000D0ED007A66EEA77AF4EEC77AF1EE10FA9B
:102D800049D9F4EEC67AF1EE10FAC0F2EF8130467E
:102D9000BBF1020F43F822002AD0D9F808000844FA
:102DA000D0ED007A66EEA77AF4EEC77AF1EE10FA6B
:102DB00035D9F4EEC67AF1EE10FAC0F2C981304688
:102DC0004AF82200D9F80C000144D1ED007A66EEF1
:102DD000A77AF4EEC77AF1EE10FA1ED9F4EEC67AAD
:102DE000F1EE10FAC0F2AD813146F86940F82210D8
:102DF000023294427FF6CBAC510808EB8100890087
:102E0000D0ED007A66EEA77AF4EEC77AF1EE10FA0A
:102E1000A3D86046A8E76046BAE76146E5E76046A2
:102E2000CEE700BF0280FFFF000000300082FF7F7E
:102E3000007E00800000003404FF7FBF04FF7F3F5E
:102E4000002C00F0EB807A690021D8F82430C7F814
:102E5000109003EB820ED7F81C909300FD610EF1E9
:102E600004021FED0C6A7B61331D154656F82120C4
:102E70004808D8ED0C6ABBF1020F82F40002A2F5FB
:102E8000000207EE902A53F8212082F40002B8EEE7
:102E9000E77AA2F5000227EE067A07EE902A0AEBFF
:102EA0008002F8EEE77A27EE267A67EE867A82EDE0
:102EB000007A09EB80024FEA800067EEA67AC2ED45
:102EC000007A27D05EF8212082F40002A2F50002E9
:102ED00007EE902A55F8212082F40002B8EEE77A36
:102EE000A2F5000227EE067A07EE902ADCF8082009
:102EF000F8EEE77A024427EE267A67EE867A82EDCC
:102F0000007A98ED0C7ADCF80C2067EE877A0244A0
:102F1000C2ED007A02318C42A8D8D7F810906046F2
:102F20006208BB694946FD699847D8F82C307A6930
:102F3000D8ED0D6A1A441FED407A1FED406A131D4B
:102F40009246DFF8C4C20022FB612B1DAB4ED9E9CB
:102F5000008E4EE0F4EEC67AF1EE10FAC0F2C580B3
:102F6000304645F822000EEB0100D0ED007A66EE07
:102F7000A77AF4EEC77AF1EE10FA49D9F4EEC67AE0
:102F8000F1EE10FAC0F2BF803046BBF1020F43F8F9
:102F900022002AD0D9F808000844D0ED007A66EE65
:102FA000A77AF4EEC77AF1EE10FA35D9F4EEC67AC4
:102FB000F1EE10FAC0F2AE8030464AF82200D9F89D
:102FC0000C000144D1ED007A66EEA77AF4EEC77AE0
:102FD000F1EE10FA1ED9F4EEC67AF1EE10FAC0F254
:102FE0008B803146F86940F82210023294427FF615
:102FF000CEAB510808EB81008900D0ED007A66EE77
:10300000A77AF4EEC77AF1EE10FAA3D86046A8E7E3
:103010006046BAE76146E5E76046CEE722464946A4
:103020006046BB699847FFF7B2BBC7F810B00022F3
:1030300098ED0C6A331DDFED726AD7F81CB0786921
:1030400056F8221007EE901A53F82210B8EEE77ADD
:1030500007EE901A51080232F8EEE77A27EE267A48
:103060000AEB810E94420BEB810167EEA67A27EE04
:10307000067A67EE867A8EED007AC1ED007ADFD8A7
:103080008300D7F810B07B614DE61A46C7F810B040
:1030900098ED0C6A331DDFED5B6AD7F81CB07869D8
:1030A00036F9221007EE101A33F9221007EE901AA3
:1030B000B8EEC77A51080232F8EEE77A27EE267AA0
:1030C0000AEB810E94420BEB810167EEA67A27EEA4
:1030D000067A67EE867A8EED007AC1ED007ADFD847
:1030E0008300D7F810B07B6134E5F0EE675AFEEE4E
:1030F000E45A15EE900A34E7F0EE675AFEEEE45A11
:1031000015EE901A6EE7F0EE675AFEEEE45A15EEF1
:10311000900A3AE7F0EE675AFEEEE45A15EE900A8E
:103120004BE767EEA57AFDEEE77A17EE900A00B25C
:1031300032E567EEA57AFDEEE77A17EE900A00B267
:103140003FE5F0EE675AFEEEE05A15EE901A4CE6B7
:10315000F0EE675AFEEEE05A15EE900A30E6F0EE19
:10316000675AFEEEE05A15EE900AFDE5F0EE675A5A
:10317000FEEEE05A15EE900A0AE667EEA57AFDEE3D
:10318000E77A17EE901A09B24AE567EEA57AFDEEE6
:10319000E77A17EE900A00B22CE5F0EE675AFEEEE1
:1031A000E45A15EE902A1FE467EEA57AFDEEE77A61
:1031B00017EE902A12B2FFF731BBF0EE675AFEEE1F
:1031C000E45A15EE902AFFF7FDBBF0EE675AFEEECB
:1031D000E05A15EE902AFFF79BBBF0EE675AFEEE21
:1031E000E05A15EE902AFFF780BB67EEA57AFDEE58
:1031F000E77A17EE902A12B2FFF724BB82FF7F0016
:1032000000000030000000387E0080FF30B5184C10
:10321000154685B0046004F1080EEC460FC98EE82F
:103220000F00D4ED047AF5EEC07A8CE80F00F1EED1
:1032300010FA1ADDB7EE006A94ED057A27EE277AC8
:10324000C6EE276A84ED0D7AC4ED0C6A6DB1204696
:1032500040F8185F01F018FC064903690020064A8F
:103260002162A262E36005B030BD012005B030BD2F
:1032700038A2002400200030000000300068083030
:10328000704700BFB1F5807F03680A4628BF4FF43E
:103290008072B1F5807F9A6094BF00200120704752
:1032A0000068183001F050BC30B5046883B008489D
:1032B0000D46A368A26A216A9B00009004F11800E1
:1032C00001F0E4FB0020C4E9000503B030BD00BFFD
:1032D0005126000810B4074B4FF07E5130240022D5
:1032E000032019619C60D8605DF8044B5961C3E903
:1032F0000622704738A2002438B50446104694F8D8
:1033000095301942237815D0032B19D094F89820C2
:10331000002594F896300A4025700B40A26001F019
:10332000F8021B09F82A237100F08680092B73D953
:10333000002038BD032BFBD8DFE803F0112A51022F
:10334000F7291CD094F98E2094F88E30002AEFDBF8
:10335000E21801330020917384F88E3038BD94F860
:10336000942094F8973022711940131F012B217378
:1033700005D994F88F3003F0FD03012B45D10023CC
:10338000237018B19022211D10F0FEFB012038BDE2
:1033900094F8973094F894201940131F2173012B4F
:1033A00005D994F88F3003F0FD03012B29D10023B8
:1033B000237000284CD09022211D10F0E5FB94F8DA
:1033C00094200120032AB4D1237B772BB1D9092281
:1033D000783B227184F8942084F8913038BD94F8B9
:1033E000973094F894201940012A617300D181B17B
:1033F00018B19022211D10F0C7FB0023012023707B
:1034000038BD022300202370DCE702230020237054
:1034100038BD00232371EBE70122072B227019D15D
:1034200001F00703A56084F88F30CBB9032218465A
:1034300084F88E30227038BD0823237194F89930B7
:1034400000221940227084F8901000289AD19DE73C
:103450000120B7E7082BF1D0284684F8943038BD16
:103460004B077FF565AF8AE700220A2302700371DC
:10347000704700BF704700BF30B5D0F80C44ADF2C4
:10348000044D3CB3D0F80824D0F804349A4224D038
:10349000EC460021E6460131D0F80834D0F8042487
:1034A0009B1AC3F30903002BF6D0D0F804345A1C3E
:1034B0000344C2F309021D79C0F80424D0F808249B
:1034C000D0F804340EF8015B9A42E4D1D0F810240D
:1034D0006046A0470DF2044D30BD0021EC46F5E7F3
:1034E000F8B5254CE378002B43D00B680E46002B33
:1034F0003FD0002105460F465B1A032B30D96B5C89
:10350000294413F00E0F2BD003F00F03234493F83C
:1035100018382BB3013B481C50FA83F0D4F804341C
:10352000D4F80824013B9B1AC3F3090313B311F821
:1035300001CFD4F80434D4F80824013B9B1AC3F318
:103540000903002BF5D0D4F80834814203F10102BD
:103550002344C2F3090283F804C0C4F80824DDD16F
:1035600004372046FFF788FF3368BFB29F423946D1
:10357000C2D3F8BDE370F3E770A20024CAB2114BC6
:10358000A2F1010210B5B2FA82F282B00E4C5209D9
:10359000ADF8041004600120A4F801101146187061
:1035A000204600920AF074F900230A20E37001F02B
:1035B00057FD009A2046054902B0BDE810400AF0C8
:1035C000EDB900BFC4C4002470A20024E134000897
:1035D00003684FF0010CC3F80C1483F803C0C3F860
:1035E000102470470368D878704700BF0368D3F889
:1035F0000424C3F80824704730B54FF44072114CCE
:10360000114BA4F8012004F61805104A03F1100E1E
:1036100004F6280CC4F838284FF60F02A4F83C280A
:10362000072284F83E280FCB85E80F009EE80F00A4
:103630008CE80F002046064A0649BDE830400FF0EE
:10364000F1BC00BF70A20024344C010880707FF0F0
:10365000000000247534000810B592B0ADF80410D5
:103660000180C9B2149C0B29C460C0E901233FD07A
:1036700090F801C0BCF10F0F3AD8022A3FD0032ABC
:1036800002D0012A00D000220E92012B02D0022B80
:1036900018BF0023022C0F932CD0032C2AD0012C0E
:1036A00028D000230A29109327D85C4A02EB8122F4
:1036B00002610A2914D8DFE801F0A39587796B5DD0
:1036C0004F4133250600564BD3F8E01041F480619A
:1036D000C3F8E010D3F8E03003F480630C930C9B44
:1036E00001230DA9104603FA0CF30D9303F0D6FA4B
:1036F00012B010BD0A291094D7D90022D8E71122A0
:103700000E92C2E7464BD3F8E01041F40071C3F8C3
:10371000E010D3F8E03003F400730B930B9BDFE76A
:103720003F4BD3F8E01041F48071C3F8E010D3F8B8
:10373000E03003F480730A930A9BD1E7384BD3F847
:10374000E01041F08001C3F8E010D3F8E03003F05E
:1037500080030993099BC3E7314BD3F8E01041F094
:103760004001C3F8E010D3F8E03003F040030893C1
:10377000089BB5E72A4BD3F8E01041F02001C3F8CD
:10378000E010D3F8E03003F020030793079BA7E78E
:10379000234BD3F8E01041F01001C3F8E010D3F848
:1037A000E03003F010030693069B99E71C4BD3F817
:1037B000E01041F00801C3F8E010D3F8E03003F066
:1037C00008030593059B8BE7154BD3F8E01041F0F8
:1037D0000401C3F8E010D3F8E03003F004030493CD
:1037E000049B7DE70E4BD3F8E01041F00201C3F8D3
:1037F000E010D3F8E03003F002030393039B6FE77C
:10380000074BD3F8E01041F00101C3F8E010D3F802
:10381000E03003F001030293029B61E700000258CD
:103820000044025808B5012143780069994089B2E3
:1038300003F03CFC003818BF012008BD01230A46F4
:103840004178006903FA01F189B203F035BC00BF89
:103850008378022B30B504468FB037D0032B33D09A
:10386000012B31D000230A93E378012B2AD0022BBD
:1038700028D000230B93002320460C9302F046F837
:103880000546204602F04AF823780990082B13D801
:10389000DFE803F01F3245586B7E91A40500594BB9
:1038A000D3F8E02042F48072C3F8E020D3F8E0308F
:1038B00003F480730893089B09A9284603F0EEF9E6
:1038C0000FB030BD0B93D6E70A93CDE711230A93CF
:1038D000CAE74C4B09A92846D3F8E02042F0010280
:1038E000C3F8E020D3F8E03003F001030093009B1D
:1038F00003F0D4F90FB030BD424B09A92846D3F8E4
:10390000E02042F00202C3F8E020D3F8E03003F0F8
:1039100002030193019B03F0C1F90FB030BD394B95
:1039200009A92846D3F8E02042F00402C3F8E020B9
:10393000D3F8E03003F004030293029B03F0AEF9E6
:103940000FB030BD2F4B09A92846D3F8E02042F034
:103950000802C3F8E020D3F8E03003F00803039333
:10396000039B03F09BF90FB030BD264B09A92846F5
:10397000D3F8E02042F01002C3F8E020D3F8E030A2
:1039800003F010030493049B03F088F90FB030BDDB
:103990001C4B09A92846D3F8E02042F02002C3F8C6
:1039A000E020D3F8E03003F020030593059B03F0FB
:1039B00075F90FB030BD134B09A92846D3F8E020A4
:1039C00042F04002C3F8E020D3F8E03003F04003B7
:1039D0000693069B03F062F90FB030BD094B09A9AD
:1039E0002846D3F8E02042F08002C3F8E020D3F864
:1039F000E03003F080030793079B03F04FF90FB00B
:103A000030BD00BF0044025870B506460D4601F0B7
:103A10007DFF0446304601F081FF2A1E0146204604
:103A200018BF0122BDE8704003F046BB00231222FC
:103A300070B586B0CDE9022304930368032B01D847
:103A400004230593061D841D304601F05FFF0546E3
:103A5000304601F063FF034601A92846019303F0B5
:103A60001DF9204601F052FF034620461C4601F096
:103A700055FF01A903462046019303F00FF906B054
:103A800070BD00BF634A0368934210B58CB028D064
:103A9000614A934258D0614A934200F09480604A50
:103AA000934201D00CB010BD5E4C5F48D4F8E030BA
:103AB00043F00203C4F8E030D4F8E03003F002032E
:103AC0000A930A9BFFF7B2FFD4F8F43043F0800367
:103AD000C4F8F430D4F8F43003F080030B930B9B5C
:103AE000E0E7504C5148D4F8E03043F00203C4F80A
:103AF000E030D4F8E03003F002030193019BFFF7BC
:103B000095FFD4F8E83000221F2043F4001311463B
:103B1000C4F8E830D4F8E83003F400130293029BB1
:103B2000D4F8D83043F00103C4F8D830D4F8D830F2
:103B300003F001030393039B02F034F81F200CB041
:103B4000BDE8104002F06CB8364C3948D4F8E0308B
:103B500043F08003C4F8E030D4F8E03003F0800391
:103B60000493049BD4F8E03043F00203C4F8E0303F
:103B7000D4F8E03003F002030593059BFFF756FFEE
:103B8000D4F8E8300022212043F480031146C4F821
:103B9000E830D4F8E83003F480030693069BD4F8A9
:103BA000D83043F00103C4F8D830D4F8D83003F04B
:103BB00001030793079B01F0F5FF21200CB0BDE83E
:103BC000104002F02DB81B48FFF730FF154B0022C4
:103BD0004820D3F8E840114644F40004C3F8E84014
:103BE000D3F8E84004F400040894089CD3F8D840C3
:103BF00044F00104C3F8D840D3F8D83003F00103EF
:103C00000993099B01F0CEFF48200CB0BDE810409D
:103C100002F006B80054004000580040005C00402C
:103C2000001C0058004402583CAD0024B4AA0024F3
:103C30008CAB002464AC00242DE9F0431A4B87B010
:103C400000254FF010099E46EC46184BFF22E04637
:103C500067461A700EF118060EF13004CDE90055D2
:103C6000CDE90255ADF80090BCE80F00CDE9045550
:103C7000AEE80F009CE803000095ADF800908EE8D8
:103C80000300B8E80F000FC69CE803000095ADF8EC
:103C9000009086E803000FCF0FC49CE8030084E87F
:103CA000030007B0BDE8F08398000024B0AA002408
:103CB00010B5EFF3108472B6084B1A78120602D5CD
:103CC00004B962B610BD1B78D82205485BB202FB6E
:103CD0000300143002F090FCF2E700BFB0AA002409
:103CE000B4AA0024014804F07FB800BF40AB002410
:103CF000014804F079B800BF18AC0024014804F072
:103D000073B800BFF0AC00242DE9F0430F68D8244D
:103D10003F4D85B007FB04F4032F05EB040303605C
:103D200040DCCB680E46012B3CD84DD04FF0D80874
:103D3000B646DFF8FC9008FB0758BEE80F00C44603
:103D4000ACE80F00DEF800300DF1100ECCF80030BA
:103D5000D8F808C099E80F000EE90F000EEB8703B2
:103D6000BCF1010F53F8103CC8F88C3031D0BCF1D5
:103D7000020F42D0BCF1000F35D0317C8C34D823F7
:103D8000002201202C4403FB07534900C3E926020B
:103D9000C3F894102046C3E92822C3E92A2203F07D
:103DA00015FE18B1012005B0BDE8F083014620469C
:103DB00004F026F80028F5D10146204604F04AF820
:103DC000003818BF0120EEE70B7C103B672BADD904
:103DD000E8E701F0DFFA0F4B98420CBF0E4B0F4B98
:103DE000C8F89030C9E701F0D5FA0A4B98420CBFE9
:103DF0000B4B0C4BC8F89030BFE701F0CBFA054BEA
:103E000098420CBF084B094BC8F89030B5E700BF8B
:103E1000B4AA0024000E27072D0FB0303211D02095
:103E20005F4390608A62E030200BA0101A09801076
:103E3000544C01082DE9F041D0F8008082B00D46C5
:103E400017461E4608F18C04204603F0D5FF2028B3
:103E5000FAD1D8F80C3073B96D002046089C33466F
:103E60003A46A9B2009403F007FE003818BF0120BB
:103E700002B0BDE8F081089B32463946204603F087
:103E8000CFFEF2E7044B10221A7483F8E82083F87F
:103E9000C02183F898227047B4AA002430B50023CB
:103EA00095B04FF48071062204460B93069213934B
:103EB000CDE90C13CDE90E33CDE9113301F06EFAE3
:103EC00007282BD004F1100541F2883206A92846B4
:103ED00004F012FF28B10123184684F85C3015B0B5
:103EE00030BD0222022306A92846CDE90023102274
:103EF0000123CDE9022300224FF48003CDE90423FE
:103F000005224FF0807306926A460F9341F2883380
:103F100005F05EF80028DED115B030BD0323012086
:103F200084F85C3015B030BD70B50023A4B04FF0FC
:103F300080724FF480750446ADF806300D93CDE9DC
:103F400010320122CDE90E53CDE91223CDE914330D
:103F5000002943D0F02300F1100508AEADF806307B
:103F6000C02341F2883231462846089304F0C4FE4B
:103F700028B10123184684F85C3024B070BD41F2AA
:103F800088320DF10601284604F020FF0346002880
:103F9000EFD105224FF480711E93284616924FF000
:103FA00080721B9321931F9202AA9FED1F7BCDE984
:103FB0001C13CDE922338DED027B9FED1D7B41F279
:103FC000883316A98DED047B9FED1B7B8DED067B61
:103FD00004F0FEFF0028CCD124B070BD00F1100524
:103FE00008AE612341F2883231462846089304F036
:103FF00083FE0028BDD141F288320DF1060128462A
:1040000004F062FF0028B4D1BDF80630204623F04A
:10401000780343F04003ADF80630FFF73FFF002878
:104020009ED0A6E7AFF30080000000000100000072
:10403000100000000100000000000000000040002F
:104040002DE9F04F00234FF4807501264FF0807862
:1040500004462DED028BABB08DF8073013932193FE
:10406000299314950E96CDF85C80CDE91533CDE9F2
:104070001863CDE91A33CDE92253CDE92433CDE9D4
:10408000273306231C9301F089F9072808D004F18F
:10409000100741F288321CA9384604F02DFE40B1C9
:1040A0000123184684F85C302BB0BDEC028BBDE8D0
:1040B000F08F4FF0020A4FF0020B4FF0050941F26A
:1040C000883308AA1CA93846CDF89480CDF87090A2
:1040D0009FED2D8BCDE908AB4FF0000A4FF4800B1C
:1040E0008DED0A8BCDE90CAB04F072FF0028D7D11F
:1040F00041F2883238460EA904F0FEFD0028CFD1E7
:10410000402341F288320DF1070138468DF807301F
:1041100004F05CFE0028C3D141F288330EA902AA44
:104120003846CDF83890CDF85C809FED197B8DED49
:10413000048BCDE906AB8DED027B04F049FF03460D
:104140000028ADD1CDF870904FF00109CDF89480E2
:104150004FF00008219308AA29931CA938462295FC
:10416000CDE92333CDE9273341F288338DED0A8B36
:10417000CDE90CABCDE9088904F02AFF002893D0E3
:10418000304684F85C608FE71000000001000000FA
:1041900040000000400000002DE9F043624CA3B055
:1041A0000D46046001F0FAF8072800F0A98028689D
:1041B00023466968AA6807C31E46AB8926F8043BF4
:1041C0003046257B677B04F079FDE0B9574B012D24
:1041D0004FF00108E061236114BF4FF480134FF4E6
:1041E0000003C4E9058893FAA3F3B3FA83F34FF409
:1041F0008079013BC4F82490C4E90B003046236267
:1042000004F0F0FC38B10122134684F85C20184613
:1042100023B0BDE8F08366230B90139041F28832FF
:1042200006A90693CDE90C90CDE90E00CDE9110069
:10423000304604F061FD0028E5D1992341F288322F
:1042400006A93046069304F057FD0028DBD105236C
:104250001C9019906A4614934FF08073219014A912
:104260001D9341F288339FED2A7BCDE91A90CDE969
:104270001F008DED007B9FED287B30468DED027B8E
:104280009FED277B8DED047B04F0A2FE0028BAD1C0
:1042900029462046FFF748FE0028B4D12046FFF704
:1042A000CFFE03460028AED1002FB0D11893304680
:1042B0000027002606AA14A9CDF86890CDE91F337F
:1042C000EB2314934FF440631B934FF40053179365
:1042D0004FF440431C93A0231693062319934FF0E9
:1042E000805321934FF04073CDE906671D9304F08E
:1042F000E7FE034600288AD0434684F85C8086E7C0
:1043000001230322184684F85C2023B0BDE8F08323
:10431000000000000100000010000000010000008B
:10432000000000000000400014AE002400500052C5
:104330002DE9F04F8FB0414B0024026800AF9A4244
:104340007C63C7E90944C7E90B4403D03C37BD4649
:10435000BDE8F08F3A4B40F609213A48EB46D3F8D6
:10436000D42007F11C0607F1220A4FF0020942F49B
:1043700080424FF00308C3F8D420D3F8D42002F4CD
:104380008042BA60BA68D3F8E02042F04002C3F835
:10439000E020D3F8E02002F04002FA60FA68D3F897
:1043A000E02042F02002C3F8E020D3F8E02002F041
:1043B00020023A613A69D3F8E02042F01002C3F8D3
:1043C000E020D3F8E02002F010027A617A69D3F895
:1043D000E02042F00202C3F8E020D3F8E030F861B8
:1043E00003F002033984BB61174B7B60BB697B68B8
:1043F00053F8040F7B6001F089FA7B680546186862
:1044000001F08CFA16F8013B786207F12401284686
:10441000C7F830807B63C7E90A9402F03FFC564539
:10442000E5D100225C20114601F0BCFB5C2001F0CC
:10443000F7FB3C37DD46BD46BDE8F08F005000522B
:10444000004402580A0A090970AE0024114B0268A0
:104450009A4200D07047104A70B5D2F8D4300F4C51
:1044600023F4804304F11806C2F8D43054F8040F42
:1044700001F04CFA0546206801F050FA0146284642
:1044800002F04CFDB442F1D15C20BDE8704001F077
:10449000D5BB00BF005000520044025870AE00244B
:1044A000014804F099BE00BF24AE0024084B1A1D39
:1044B000981D03F1080110B49C1C9A6603F10A02CE
:1044C000C3E91834C3E91B015DF8044B5A67704710
:1044D00014AE002438B5036871B9026A00F12805EA
:1044E00000F5AC74012A0CBF002140218BBB1D4B91
:1044F0005722C0F858310DE0426A00F1C00500F5BE
:10450000E874012A0CBF00214021EBB1164B5A225E
:10451000C0F8D03100232046C4E901214FF4805275
:104520004FF48061636262614FF48042C4E90331F9
:104530004FF48073C4E906234FF40033236201F083
:10454000E3FC58B1FFBEFEE7084B5822C0F8D0315B
:10455000E0E7074B5922C0F85831DBE7C5E92044B2
:10456000A56338BD100002407000024028000240E0
:10457000580002402DE9F043821D05468BB0031D13
:1045800005F10A010830CDE9052305F10C02AB69FC
:10459000CDE907010992002B3DD0EB69B3FA83F80E
:1045A0004FEA58180123022205AE0AAF4FF0060960
:1045B0000393CDE9012356F8044B2B7922789342DB
:1045C00016D02B68F3B1012B02D1F2B10A23049368
:1045D000204601F0A3F903462046009301F096F926
:1045E000694602F05BFBBE42E5D10BB0BDE8F0834B
:1045F000697963789942E4D1B8F1000FF3D02B6860
:10460000002BE0D1CDF81090E2E76378022B14BFC5
:104610000A230823DBE74FF00108C3E7534A036886
:10462000934230B505468BB055D02032934252D0DC
:104630004F4A934204D02032934201D00BB030BD98
:104640004C4C4D48D4F8E03043F00103C4F8E0305E
:10465000D4F8E03003F001030593059BD4F8E03073
:1046600043F00803C4F8E030D4F8E03003F0080366
:104670000693069BD4F8E03043F04003C4F8E030E2
:10468000D4F8E03003F040030793079BD4F8F030F0
:1046900043F40003C4F8F030D4F8F03003F400031E
:1046A0000893089BFFF766FFD4F8D830296843F0D9
:1046B00001032F4A3048C4F8D830891AD4F8D830CA
:1046C00018BF012103F001030993099B0BB0BDE85A
:1046D0003040FFF7FFBE274C2848D4F8E03043F0C5
:1046E0000103C4F8E030D4F8E03003F00103009394
:1046F000009BD4F8E03043F01003C4F8E030D4F865
:10470000E03003F010030193019BD4F8E03043F054
:104710004003C4F8E030D4F8E03003F040030293E3
:10472000029BD4F8F03043F48003C4F8F030D4F89E
:10473000F03003F480030393039BFFF71BFFD4F8CF
:10474000D830296843F00103084A0C48C4F8D8302F
:10475000891AD4F8D83018BF012103F0010304935B
:10476000049B0BB0BDE83040FFF7B4BE04580140D5
:10477000045C014000440258E8B000248CAE0024E0
:10478000014801F039BF00BFE4AF0024014801F047
:1047900033BF00BF5CB00024014801F02DBF00BF53
:1047A00040B20024014801F027BF00BFB8B2002486
:1047B0001A4A0368934210B40BD02032934208D0B7
:1047C000174A934216D02032934213D05DF8044B1F
:1047D0007047144B0022D3F85442C3F85822002CDF
:1047E000F4D0D3F84802D3E9931223465DF8044B82
:1047F000520818470B4B0022D3F8B044C3F8B42436
:10480000002CE3D0D3F8AC24D3F8A814D3F8A40434
:10481000520823465DF8044B184700BF0458014076
:10482000045C01408CAE0024184A0368934210B423
:104830000BD02032934208D0154A934217D0203231
:10484000934214D05DF8044B7047124BD3E9942483
:104850005208C3F85822002CF4D0D3E99201234621
:1048600001EB820100EB82005DF8044B1847094B15
:10487000D3F8AC24D3F8B0445208C3F8B424002CC5
:10488000E0D0D3F8A814D3F8A404E8E70458014012
:10489000045C01408CAE00242DE9F04F0C684FF40D
:1048A0001776754F87B004FB06F6012C07EB060A56
:1048B000C0F800A000F3A0800D468E464FF000081F
:1048C000D44669A3D3E9002369A1D1E90001CDE968
:1048D000022306ABCAF8508203EB8403CDE904013E
:1048E00053F810BC53F8083CCAE992880193BEE81B
:1048F0000F00ACE80F00BEE80F00ACE80F00019B12
:104900009EE80300CAF828B0CAF8C0308CE803005B
:104910002B69042B0CD8DFE803F0737D879103002B
:104920004FF41773554A03FB04739A64C3F8E020ED
:10493000AA692B6A002A43D0002B4FF4177308BFD3
:10494000022203FB047318BF0322DA6201221A63F6
:10495000EA696B6A002A40D1191E4FF4177318BF19
:10496000012103FB0473C3E931126B69022B05D8E3
:10497000434A12F80380434A52F823904FF41773C6
:1049800006F128004246494603FB047400233844DC
:1049900063646363E365C4F8DC30C4F8CC30C4F806
:1049A000F430C4E90F33C4E91533C4E93533C4E93D
:1049B0003B33022306F0B2FC002849D0FFBEFEE7DD
:1049C000191E4FF4177318BF012103FB0473C3E9C9
:1049D0000B12EA696B6A002ABED0002B4FF41773E2
:1049E00008BF022203FB047318BF0322C3F8C420CC
:1049F0000122C3F8C820B8E7012007B0BDE8F08F56
:104A00004FF417734FF4FA5203FB04739A64C3F81C
:104A1000E0208DE74FF417734FF47A5203FB0473D1
:104A20009A64C3F8E02083E74FF417734FF4FA4217
:104A300003FB04739A64C3F8E02079E74FF417731B
:104A40004BF6803203FB04739A64C3F8E0206FE7EF
:104A500006F1C000022342464946384406F05EFC97
:104A60000028CAD0FFBEFEE704580140045C0140A4
:104A700024580140245C01408CAE002400770100E2
:104A8000884C01088C4C01080068704770B50468B8
:104A900082B015460E46C4F85032C4E99212069A06
:104AA000C4F85422A269012A26D0626A012A9AB265
:104AB00011D0294604F1C000019206F0EBFC236AF4
:104AC000019A012B10D0294604F1280006F0E2FCDF
:104AD000002002B070BD04F1C000019206F06CFD30
:104AE000236A019A012BEED1314604F1280006F029
:104AF00063FD002002B070BD226A012A9AB211D073
:104B0000294604F12800019206F0C4FC636A019A68
:104B1000012B10D0294604F1C00006F0BBFC002098
:104B200002B070BD04F12800019206F045FD636AF1
:104B3000019A012BEED1314604F1C00006F03CFD94
:104B4000002002B070BD00BF03681B69042B05D8AC
:104B5000044A02EB830393ED000A70479FED020ABB
:104B6000704700BF984C010800803B470368D3F8AA
:104B700058027047714A036811698B4200B587B0CB
:104B80004BD0916E8B4200F0B680D2F8C0108B42B1
:104B900000F0B380D2F818118B4200F0B080B3F16E
:104BA000804F1ED0664A93420DD0664A934200F071
:104BB000A880654A934200F0B280644A93421ED0B6
:104BC00007B05DF804FB624BD3F8E82042F0020224
:104BD000C3F8E820D3F8E83003F002030293029B05
:104BE000EEE75B4BD3F8E82042F00102C3F8E8207F
:104BF000D3F8E83003F001030193019BE0E7544B45
:104C0000D3F8E82042F01002C3F8E820D3F8E830E7
:104C100003F010030593059BD2E700205821B3F160
:104C2000804F01FB0022127B1ED045498B4235D0BC
:104C300044498B4248D044498B42BED1444BD3F8BF
:104C4000E81041F00801C3F8E810D3F8E83003F0A9
:104C500008030493049B002AB2D0322000220F21C3
:104C600000F0A0FF322014E0394BD3F8E81041F0F7
:104C70000101C3F8E810D3F8E83003F00103019311
:104C8000019B002A9CD01C2000220F2100F08AFFEB
:104C90001C2007B05DF804EB00F0C2BF2C4BD3F82A
:104CA000E81041F00201C3F8E810D3F8E83003F04F
:104CB00002030293029B002A82D01D2000220F21B2
:104CC00000F070FF1D20E4E7214BD3F8E81041F01D
:104CD0000401C3F8E810D3F8E83003F004030393A9
:104CE000039B002A3FF46CAF1E2000220F2100F02E
:104CF00059FF1E20CDE7012090E702208EE7032018
:104D00008CE7134BD3F8E82042F00402C3F8E82004
:104D1000D3F8E83003F004030393039B50E70C4BF4
:104D2000D3F8E82042F00802C3F8E820D3F8E830CE
:104D300003F008030493049B42E700BF44B300243C
:104D40000004004000080040000C0040001000403B
:104D5000004402580F4B026819698A420BD0996EC1
:104D60008A4211D0D3F8C0108A420FD0D3F818115C
:104D70008A420DD070470021582202FB01331A6D80
:104D8000002AF7D0586D10470121F5E70221F3E71B
:104D90000321F1E744B30024014806F019BF00BF26
:104DA00054B30024014806F013BF00BFACB3002485
:104DB000014806F00DBF00BF04B40024014806F00E
:104DC00007BF00BF5CB40024F0B54FF0580C0F686B
:104DD0002E4D8DB00CFB07FC032F05EB0C06066077
:104DE00047DC0B460868344649689A6807C41B7B51
:104DF000237004AC7268264B002A4FF000027261E7
:104E000018BF1022B2610FCB84E80F000CAB03EB8C
:104E1000870353F8203CB3F1804F336124D01D4AFF
:104E2000934221D030890CF11004582300218022B4
:104E300003FB07532C44C3E907019A62204606F09E
:104E400031FD034600B1FEE74FF4805208A9204629
:104E5000099301930892CDE90A33CDE9023306F0B4
:104E6000F1FD034640B1FEE7582303FB0753986862
:104E7000D9E701200DB0F0BD01A9204601930393AD
:104E800006F05EFF0028F5D0FEE700BF44B3002423
:104E9000644C0108000C0040006808B5037B10302A
:104EA0002BB106F0B9FD003818BF012008BD06F08F
:104EB00099FD003818BF012008BD00BF11B103687B
:104EC000C3E91412704700BF0C4B00224FF0FF31B2
:104ED0001A739960196683F86420C3F8B81083F8D0
:104EE000BC20C3F8101183F81421C3E90022C3E9E0
:104EF0001622C3E92C22C3E94222704744B300249E
:104F0000704700BF08B500F011FEBDE8084000F092
:104F100011BF00BF064808B503680BB102F0D0F816
:104F2000044803681BB1BDE8084003F077B808BD2A
:104F3000B8BC0024B0B80024064808B503680BB11B
:104F400002F0BEF8044803681BB1BDE8084003F056
:104F500065B808BDB8BC0024B0B80024064808B540
:104F600003680BB102F0ACF8044803681BB1BDE85C
:104F7000084003F053B808BDB8BC0024B0B8002402
:104F8000364BDA6A520062D59A6A9A6A9A6A9B6AC2
:104F9000180600D500BE314B9B6A990600D500BEAD
:104FA0002E4B9B6ADA0600D500BE2C4B9B6A1B0772
:104FB00000D500BE294B9B6A980700D500BE274B41
:104FC0009B6AD90700D500BE244B9B6A1A0400D502
:104FD00000BE224B9B6A9B0400D500BE1F4B9B6A00
:104FE000D80400D500BE1D4B9B6A190500D500BE34
:104FF0001A4B9B6A5A0500D500BE184B9B6A9B054D
:1050000000D500BE154B9B6AD80500D500BE134BDA
:105010009B6A990100D500BE104B9B6ADA0100D54E
:1050200000BE0E4B9B6A1B0300D500BE0B4B9B6A58
:10503000580300D500BE094B9B6A990300D500BEFA
:10504000064B9B6ADA0306D400BE00BEFEE7DB6AAD
:105050009B07FAD5F8E700BEF6E700BF00ED00E0D9
:1050600000F076BD0A4B9B6803F17843B3F5003F2F
:105070000BD3084B986848B19868012806D0986807
:10508000022803D09B68032070470120704700BFAF
:1050900000ED00E0000080382DE9F041CEB004467C
:1050A0004C2200210AA80EF07DFD2022002102A83A
:1050B0000EF078FDBC2200211EA80EF073FD022028
:1050C00003F0A8FC2368012B4FF0000354D0534A8F
:1050D00002250193C820D16A514B21F00101D16210
:1050E000D26A02F0010201929A6942F440429A6146
:1050F0009B6903F440430193019B494A93699B04D4
:10510000FCD548490224002201268B6A04274FF06F
:10511000080823F0030323438B62052316900AA893
:1051200018934FF480331096179419941597CDF86F
:105130006880CDE91B222122CDE91344CDE90A2361
:1051400004F052F900B1FEE73F220323294602A8EA
:10515000CDE9022300220823CDE904234022402385
:10516000CDE9062340234FF48062CDE9082304F003
:1051700069FC0346B8B1FEE7294A04250093F020F4
:105180009169264B41F440419161926902F4404299
:105190000092DA6A42F00102DA62DB6A03F001038C
:1051A0000093009BA9E720224FF4805125934FF4F0
:1051B00040152B9280222D931EA830932691359175
:1051C0004FF48071249234920C223394439140F234
:1051D000271120921022CDF884802A971F96CDE9BE
:1051E0002E34CDE93B334FF48033CDE92246319361
:1051F000002446930623CDE93E4527934FF4806370
:10520000094C2C931E94CDE9281204F077FE00B1CE
:10521000FEE703F025FC4EB0BDE8F0810004005825
:1052200000480258004402580F130F0370B584B0B1
:10523000012400F02DFD4FF480764FF04052194BC1
:1052400068460025ADF800400396CDE9012300F043
:105250003DFD19224FF0404368468DF80820019328
:105260008DF80F40ADF80D608DF801408DF80A50B3
:1052700000F02CFD02230B2268468DF80F508DF8AC
:1052800001304FF062538DF808200193ADF80D40C6
:105290008DF80A4000F01AFD042000F007FD04B06C
:1052A00070BD00BF0E00010330B50D46044685B049
:1052B000D1E9000184E8030000F008FCAB79A3B356
:1052C0000AF036F9FEF7B8FC08F066FF09F032FE86
:1052D0002B798BBB6B799BB1BFF34F8FBFF36F8F74
:1052E0002A4B0022C3F85022BFF34F8FBFF36F8FBA
:1052F0005A6942F400325A61BFF34F8FBFF36F8F88
:105300004FF0FF3200230024002569462048029216
:105310008DF80C30CDE90045FFF756FD1C48FFF72E
:10532000BBFD08F069FB05B030BD2046FFF7B4FEB9
:105330002046FFF77BFFC3E7144C0023C4F88430FA
:10534000BFF34F8FD4F8801043F6E07EC1F34E3C9C
:10535000C1F3C9014FEA4C1C0CEA0E000B4640EAAF
:105360008372013BC4F860225A1CF8D1ACF1200CC6
:105370001CF1200FF0D1BFF34F8F636943F48033EA
:105380006361BFF34F8FBFF36F8FA3E700ED00E0C2
:10539000A4B4002404F086BC04F0A0BC1C4B9B68A1
:1053A00003F17842B2F5003F25D3B3F5803F20D317
:1053B00003F16042B2F5003F1FD303F15C42B2F546
:1053C000002F1CD303F17042B2F5902F19D303F1D3
:1053D0004842B2F5803F16D303F18042B2F1806FAC
:1053E00013D303F1E043B3F5000F2CBF08200720CF
:1053F000704701207047002070470220704703204B
:10540000704704207047052070470620704700BF92
:1054100000ED00E003480023034A044903600DF057
:1054200001BE00BFA4B4002400000024014F000806
:1054300010B4204C0022204B83B0D4F888101F48B1
:1054400041F47001C4F8881019681D4C41F0010145
:1054500019601A61196808401A4918609A61DA617E
:105460001A629A62DA621A635A639A63DA631A6496
:105470005A64186820F4802018601A66D3F8DC207B
:1054800042F06042C3F8DC20D3F8DC300193019B8A
:1054900023681940B1F1005F03D20B4B0122C3F81E
:1054A0000821044B4FF000629A6003B05DF8044B92
:1054B000704700BF00ED00E0004402587FEDF6EABF
:1054C0000010005C0000FFFF008000514B4A0368A1
:1054D00030B593428BB04FF00004CDE90444CDE9E0
:1054E0000644089404D0464A934249D00BB030BDDC
:1054F000444D4FF4C0524448D5F8E03043F0010326
:10550000C5F8E030D5F8E03003F001030093022342
:10551000009904A9CDE904230A23089301F0BEFBF6
:105520004FF40072002304A937480694CDE9042300
:1055300001F0B4FBD5F8D8302246214643F0006391
:105540006220C5F8D830D5F8D83003F00063019355
:10555000019B00F027FB622000F062FB22462146FF
:10556000632000F01FFB632000F05AFB2246214617
:10557000652000F017FB652000F052FB0BB030BD3A
:10558000204D4FF4404204A9D5F8E03043F0020327
:10559000C5F8E030D5F8E03003F0020302930223AF
:1055A00002981A48CDE904230C23089301F076FBF6
:1055B000D5F8D830224621464A2043F00073C5F87A
:1055C000D830D5F8D83003F000730393039B00F074
:1055D000E9FA4A2000F024FB224621464B2000F045
:1055E000E1FA4B2000F01CFB224621464D2000F042
:1055F000D9FA4D2000F014FB0BB030BD000008407C
:105600000000044000440258000002580004025800
:1056100000F57171D0F8040407F0DCBCC1EBC103E4
:1056200000EB8303D0F80404D3F8082207F000BD90
:10563000C1EBC10300EB8303D0F804049A6C07F0BC
:1056400035BD00BFD0F8040407F0D4BDC16810B563
:10565000044619B1022900D0FEE70121D4F8040460
:1056600007F0B2FDD4F80404BDE8104007F084BD93
:1056700010B50446D0F8040407F0AAFD2268D2F859
:10568000003E43F00103C2F8003E236A23B1034AFF
:10569000136943F00603136110BD00BF00ED00E085
:1056A000D0F8040407F09EBDD0F8040407F0B2BDA2
:1056B000D0F8040407F0ACBDD0F8040407F0ACBD8A
:1056C000D0F8040407F0AABD70B5067804461EB1F0
:1056D000012E30D0002070BD304D0923304AC5F86E
:1056E0000404C0F8985228462E612E63C5E90023B1
:1056F00002230222EB600023C5E9062300220023D7
:10570000C5E9082301220123C5E90A2302F0CEFBE3
:1057100000B1FEE78021284603F05CF931464022C3
:10572000284603F02DF980220121284603F028F9AC
:105730002678012ECED11B4D09221B4B00216A6019
:1057400002222B600223C5F804442846EB600023A4
:10575000C4F898522961C5E9062300220023C5E94F
:105760000823C5E90C2301220023C5E90A2302F01E
:105770009DFB044600B1FEE74FF40071284603F09C
:1057800029F921468022284603F0FAF84FF4BA722C
:105790003146284603F0F4F89CE700BFA8B4002483
:1057A00000000840B0B8002400000440D0F898027F
:1057B00008B502F011FC032802D8024B185C08BDA2
:1057C000022008BDBC4C01089446D0F898021A4645
:1057D00008B5634602F086FF032802D8024B185C26
:1057E00008BD022008BD00BFBC4C0108D0F89802DB
:1057F00008B502F0B5FF032802D8024B185C08BDBB
:10580000022008BDBC4C0108D0F8980208B503F08E
:1058100037F8032802D8024B185C08BD022008BDE7
:10582000BC4C0108D0F8980208B503F06DF80328C5
:1058300002D8024B185C08BD022008BDBC4C010810
:105840000A06D0F8983206D4C1EBC10103EB8101FE
:1058500091F8FE01704701F07F01C1EBC10103EB3C
:10586000810191F83E007047D0F8980208B502F027
:1058700023FF032802D8024B185C08BD022008BD94
:10588000BC4C0108D0F8980208B502F0D1FF0328FB
:1058900002D8024B185C08BD022008BDBC4C0108B0
:1058A000D0F8980208B502F091FF032802D8024B05
:1058B000185C08BD022008BDBC4C0108D0F8980255
:1058C00002F0ACBFD0F8C00207F09ABFD0F8C00217
:1058D00007F0AEBFD0F8C00207F0B6BF704700BFF8
:1058E000D0F8C00207F09CBFD0F8C00207F09CBF00
:1058F000D0F8D00308B501F0A3FF032802D8024B6B
:10590000185C08BD022008BDC04C0108024B02789B
:1059100053F82200704700BFE44C0108024B427864
:1059200033F81200704700BFC44C01088CB00A283D
:1059300014D8DFE800F01523313F4D5B697785937C
:1059400006004D4BD3F8E02042F48062C3F8E0201B
:10595000D3F8E03003F480630B930B9B0CB07047DB
:10596000454BD3F8E02042F00102C3F8E020D3F821
:10597000E03003F001030193019BEFE73E4BD3F8C6
:10598000E02042F00202C3F8E020D3F8E03003F058
:1059900002030293029BE1E7374BD3F8E02042F089
:1059A0000402C3F8E020D3F8E03003F004030393CB
:1059B000039BD3E7304BD3F8E02042F00802C3F852
:1059C000E020D3F8E03003F008030493049BC5E71C
:1059D000294BD3F8E02042F01002C3F8E020D3F8BE
:1059E000E03003F010030593059BB7E7224BD3F893
:1059F000E02042F02002C3F8E020D3F8E03003F0CA
:105A000020030693069BA9E71B4BD3F8E02042F046
:105A10004002C3F8E020D3F8E03003F040030793DE
:105A2000079B9BE7144BD3F8E02042F08002C3F8B9
:105A3000E020D3F8E03003F080030893089B8DE763
:105A40000D4BD3F8E02042F48072C3F8E020D3F885
:105A5000E03003F480730993099B7FE7064BD3F88A
:105A6000E02042F40072C3F8E020D3F8E03003F401
:105A700000730A930A9B71E700440258704700BF05
:105A80000F4B1B780BB90120704710B504464FF43B
:105A90007A700C4AB0FBF3F31068B0FBF3F000F03F
:105AA000E1F80F2C00D808B1012010BD00222146DA
:105AB0004FF0FF3000F076F8034B00201C6010BD63
:105AC000E8000024E0000024EC00002438B50320A6
:105AD000124D00F055F8124C03F014FF114A124910
