:020000040800F2
:1000000000000220010A0008FD090008895C0008C0
:10001000FD090008FD090008FD09000800000000B6
:10002000000000000000000000000000FD090008C2
:10003000FD09000800000000FD0900080D5C000833
:10004000FD090008FD090008FD090008FD09000878
:10005000FD090008FD090008FD090008FD09000868
:10006000FD090008FD090008FD0900088554000885
:1000700091540008FD0900089D540008A954000887
:1000800005FF000811400008FD090008FD090008EF
:10009000FD090008FD090008FD090008FD09000828
:1000A000FD090008FD090008FD090008FD09000818
:1000B000A15A0008AD5A0008B95A00084540000886
:1000C000FD09000851400008FD09000821EF000863
:1000D0002DEF000839FD000865FD000899FD0008B6
:1000E000FD090008FD09000800000000FD090008E6
:1000F000FD090008FD090008FD090008FD090008C8
:10010000FD090008FD090008C55A000839EF00087C
:10011000CDFD000801FE0008FD090008FD090008EA
:10012000FD090008FD0900085DEF000891EF0008D7
:1001300039FF0008FD090008FD090008FD09000855
:1001400000000000000000000000000000000000AF
:10015000FD090008FD090008FD09000835FE00083A
:100160005D400008FD0900081D5C0008415C0008B6
:10017000FD090008655C0008FD090008FD0900088C
:10018000FD090008FD09000869FE00089DFE000841
:1001900045EF000851EF0008FD090008FD090008BF
:1001A000FD090008FD090008FD090008FD09000817
:1001B000A5510008FD090008FD090008FD09000817
:1001C000FD090008FD090008DDE60008E9E6000871
:1001D000FD090008F5E60008FD090008FD09000812
:1001E000FD090008FD090008FD090008FD090008D7
:1001F000FD090008FD090008FD090008FD090008C7
:10020000FD090008FD090008FD090008FD090008B6
:10021000FD090008FD090008FD090008FD090008A6
:10022000FD090008FD090008FD09000800000000A4
:10023000FD090008FD09000800000000FD09000894
:10024000FD090008FD090008FD090008FD09000876
:10025000FD090008FD090008FD090008FD09000866
:10026000FD090008FD090008FD090008FD09000856
:10027000FD090008FD090008D1FE0008000000008B
:10028000FD090008FD090008FD0900080000000044
:0802900000000000FD09000858
:1002A00010B5054C237833B9044B13B10448AFF3B0
:1002B00000800123237010BD2807002400000000E7
:1002C000B05F010808B5034B1BB103490348AFF306
:1002D000008008BD000000002C070024B05F01086A
:1002E00001F0FF01102A2BDB10F0070F08D010F8E7
:1002F000013B013A8B422DD010F0070F42B3F6D1EB
:10030000F0B441EA012141EA014122F007047FF003
:1003100000070023F0E80256083C85EA010586EA5A
:10032000010685FA47F5A3FA87F586FA47F6A5FA96
:1003300087F68EB9EED1F0BC01F0FF0102F00702A2
:1003400032B110F8013B013A83EA010313B1F8D14D
:100350000020704701387047002D06BF354603382E
:10036000073815F0010F07D1013015F4807F02BF67
:10037000013015F4C03F0130F0BC0138704700BFB8
:1003800081F0004102E000BF83F0004330B54FEA46
:1003900041044FEA430594EA050F08BF90EA020FB3
:1003A0001FBF54EA000C55EA020C7FEA645C7FEA46
:1003B000655C00F0E2804FEA5454D4EB5555B8BF69
:1003C0006D420CDD2C4480EA020281EA030382EADA
:1003D000000083EA010180EA020281EA0303362D6C
:1003E00088BF30BD11F0004F4FEA01314FF4801C3F
:1003F0004CEA113102D0404261EB410113F0004F51
:100400004FEA03334CEA133302D0524263EB430307
:1004100094EA050F00F0A780A4F10104D5F1200EA5
:100420000DDB02FA0EFC22FA05F2801841F1000100
:1004300003FA0EF2801843FA05F359410EE0A5F1D4
:1004400020050EF1200E012A03FA0EFC28BF4CF005
:10045000020C43FA05F3C01851EBE37101F00045BB
:1004600007D54FF0000EDCF1000C7EEB00006EEBC8
:100470000101B1F5801F1BD3B1F5001F0CD3490852
:100480005FEA30004FEA3C0C04F101044FEA4452A9
:1004900012F5800F80F09A80BCF1004F08BF5FEA30
:1004A000500C50F1000041EB045141EA050130BD10
:1004B0005FEA4C0C404141EB0101013C28BFB1F522
:1004C000801FE9D291F0000F04BF01460020B1FA6D
:1004D00081F308BF2033A3F10B03B3F120020CDA40
:1004E0000C3208DD02F1140CC2F10C0201FA0CF01E
:1004F00021FA02F10CE002F11402D8BFC2F1200C83
:1005000001FA02F120FA0CFCDCBF41EA0C01904038
:10051000E41AA2BF01EB0451294330BD6FEA040481
:100520001F3C1CDA0C340EDC04F11404C4F120026C
:1005300020FA04F001FA02F340EA030021FA04F37E
:1005400045EA030130BDC4F10C04C4F1200220FAD5
:1005500002F001FA04F340EA0300294630BD21FA13
:1005600004F0294630BD94F0000F83F4801306BFD9
:1005700081F480110134013D4EE77FEA645C18BFCD
:100580007FEA655C29D094EA050F08BF90EA020F64
:1005900005D054EA000C04BF1946104630BD91EA5C
:1005A000030F1EBF0021002030BD5FEA545C05D15F
:1005B0004000494128BF41F0004130BD14F580049E
:1005C0003CBF01F5801130BD01F0004545F0FE4112
:1005D00041F470014FF0000030BD7FEA645C1ABF47
:1005E000194610467FEA655C1CBF0B46024650EA7E
:1005F000013406BF52EA033591EA030F41F40021AA
:1006000030BD00BF90F0000F04BF0021704730B52F
:100610004FF4806404F132044FF000054FF0000104
:1006200050E700BF90F0000F04BF0021704730B5C5
:100630004FF4806404F1320410F0004548BF40429A
:100640004FF000013EE700BF42004FEAE2014FEAEF
:1006500031014FEA02701FBF12F07F4393F07F4FCA
:1006600081F06051704732F07F4208BF704793F0CD
:100670007F4F04BF41F40021704730B54FF46074E0
:1006800001F0004521F000411CE700BF50EA0102E3
:1006900008BF704730B54FF000050AE050EA01028C
:1006A00008BF704730B511F0004502D5404261EBFC
:1006B00041014FF4806404F132045FEA915C3FF43D
:1006C000D8AE4FF003025FEADC0C18BF03325FEADA
:1006D000DC0C18BF033202EBDC02C2F1200300FA8B
:1006E00003FC20FA02F001FA03FE40EA0E0021FAB0
:1006F00002F11444BDE600BF53B94AB9002908BF4E
:1007000000281CBF4FF0FF314FF0FF3000F074B9EC
:10071000ADF1080C6DE904CE00F006F8DDF804E058
:10072000DDE9022304B070472DE9F047089D044637
:100730008E46002B4DD18A42944669D9B2FA82F294
:1007400052B101FA02F3C2F1200120FA01F10CFAD0
:1007500002FC41EA030E94404FEA1C48210CBEFB08
:10076000F8F61FFA8CF708FB16E341EA034306FB91
:1007700007F199420AD91CEB030306F1FF3080F020
:100780001F81994240F21C81023E63445B1AA4B26D
:10079000B3FBF8F008FB103344EA034400FB07F70F
:1007A000A7420AD91CEB040400F1FF3380F00A8150
:1007B000A74240F207816444023840EA0640E41B45
:1007C00000261DB1D4400023C5E900433146BDE8F1
:1007D000F0878B4209D9002D00F0EF800026C5E993
:1007E000000130463146BDE8F087B3FA83F6002EAB
:1007F0004AD18B4202D3824200F2F980841A61EB23
:10080000030301209E46002DE0D0C5E9004EDDE740
:1008100002B9FFDEB2FA82F2002A40F09280A1EB28
:100820000C014FEA1C471FFA8CFE0126200CB1FB7D
:10083000F7F307FB131140EA01410EFB03F0884276
:1008400008D91CEB010103F1FF3802D2884200F203
:10085000CB804346091AA4B2B1FBF7F007FB101195
:1008600044EA01440EFB00FEA64508D91CEB040433
:1008700000F1FF3102D2A64500F2BB800846A4EB8E
:100880000E0440EA03409CE7C6F12007B34022FA79
:1008900007FC4CEA030C20FA07F401FA06F31C43A8
:1008A000F9404FEA1C4900FA06F3B1FBF9F8200CB5
:1008B0001FFA8CFE09FB181140EA014108FB0EF0FB
:1008C000884202FA06F20BD91CEB010108F1FF3A4B
:1008D00080F08880884240F28580A8F10208614457
:1008E000091AA4B2B1FBF9F009FB101144EA014165
:1008F00000FB0EFE8E4508D91CEB010100F1FF3410
:100900006CD28E456AD90238614440EA0840A0FBA7
:100910000294A1EB0E01A142C846A64656D353D07D
:100920005DB1B3EB080261EB0E0101FA07F722FAA1
:1009300006F3F1401F43C5E9007100263146BDE8CA
:10094000F087C2F12003D8400CFA02FC21FA03F32D
:10095000914001434FEA1C471FFA8CFEB3FBF7F0AE
:1009600007FB10360B0C43EA064300FB0EF69E42D3
:1009700004FA02F408D91CEB030300F1FF382FD26C
:100980009E422DD9023863449B1B89B2B3FBF7F614
:1009900007FB163341EA034106FB0EF38B4208D9ED
:1009A0001CEB010106F1FF3816D28B4214D9023E2E
:1009B0006144C91A46EA004638E72E46284605E74C
:1009C0000646E3E61846F8E64B45A9D2B9EB02081D
:1009D00064EB0C0E0138A3E74646EAE7204694E7AD
:1009E0004046D1E7D0467BE7023B614432E73046E0
:1009F00009E76444023842E7704700BFFEE700BFE2
:100A00000B480C4A904203D0121A0B4913F040FFD6
:100A10000A480B4A904203D0121A002113F046FFF5
:100A200005F08AFB13F008FF00F090FCFEE700BF22
:100A30000000002428070024E45F010828070024A0
:100A4000FCFF0024704700BF704700BF704700BF25
:100A5000704700BFAAB32DE9F041174682B00646A1
:100A60000C460025DFF8608007E0023523606360F4
:100A70000836AF4204F1080420D998F8001000238A
:100A80000129F2D101AA69460E48023501F016F893
:100A900096ED007ADDED007AAF42DDED016A06F1F8
:100AA000080637EE277A04F1080404ED027A56EDC1
:100AB000017A77EEA67A44ED017ADED802B0BDE87D
:100AC000F0817047E49800240400002403282DE9F5
:100AD000F84F08D0DFF8BC90B9F800100131A9F840
:100AE0000010BDE8F88F254CDFF8A8902368B9F80E
:100AF000001003F10052224D128892B28A422A80DD
:100B0000ECD1DFF894801F4F1F4E0BE001F0ACF9E1
:100B10002368B9F8001003F10052128892B2914292
:100B20002A80DBD1981C194AD91CDFF870A02060FC
:100B30009A5C2160191D02F07F0C02F0800B5FFAB5
:100B400082FE1348A8F800B0A7F800C013F80A20E6
:100B5000216061461346D2B2FF2B338006D01EF0CF
:100B6000800FD3D10A4801F0F7F9D1E700224FF402
:100B70008033A9F800202360BDE8F88F0C00002422
:100B8000D6980024D4980024D8980024020000208D
:100B9000E4980024CE980024D2980024030000207A
:100BA000B9B30144F0B51546A5B002F10807441EDB
:100BB0004E1E01E0A6422AD014F8011F6A463846AC
:100BC00002F04AFD0028F5D0D5F8A8C09022694669
:100BD000D5E92B03C31A00F1010E00EBC00048BF9A
:100BE00063440CF1FF3C9C45E4D0D5F8A430C5F833
:100BF000ACE003EB001013F04BFED5E92A2393423F
:100C0000A3EB020328BFC5F8AC30A642D4D125B06F
:100C1000F0BD7047054B188808B1FFF757BF04496E
:100C20004FF48032034B08801A607047D09800243C
:100C3000CE9800240C00002400B500F21C4300F202
:100C40006C5E3033002220494FF0000C734543F8AE
:100C5000302C43F82C2C43F8281C43F8242C43F860
:100C6000201C43F81C1C43F8181C43F8142C43F8B0
:100C7000102C43F80C2C03F804CC03F803CCE0D17F
:100C800000F2BC6E303300220F494FF0000C734568
:100C900043F8302C43F82C2C43F8281C43F8242C20
:100CA00043F8201C43F81C1C43F8181C43F8142C70
:100CB00043F8102C43F80C2C03F804CC03F803CCB5
:100CC000E0D15DF804FB00BF000080BF134B30B4DF
:100CD0001A68134C02F10055B4F800C0A5F800C022
:100CE000951C1D600F4D50551A680F4D501C186013
:100CF0000E4811541A68511CA94219600CD9218858
:100D000011524FF6FF700A495052002209484FF421
:100D1000803122800280196030BC70470C000024B2
:100D2000CE98002402000020F8FF070001000020F8
:100D300003000020D098002484B0F0B583B008AC44
:100D400084E80F009DF820309DF828409DF8292068
:100D5000062B0CD8DFE803F0104F0B28610B0400C2
:100D6000984B93F88930112B72D08B4270D003B01E
:100D7000BDE8F04004B07047924B93F88930112BD6
:100D800001D08B42F3D1904B1B88012B00F09F8246
:100D900021468C4801F0E0F800218C4803B0BDE802
:100DA000F04004B001F044BA012C5DD0072CDED134
:100DB000874B1B781C2BDAD8DFE813F0380231029E
:100DC0002A021E0212020202F101E501D901CD013F
:100DD000C101B501A9019D0191018501740168015D
:100DE0005C0157014B013F0133012201F700E6008E
:100DF0001601D500CB00734B93F88930112B01D02D
:100E00008B42B4D1704B1B88012B00F065822146C8
:100E10006C4801F029F80121BFE76A4B93F889304B
:100E2000112B01D08B42A2D11C2C40F24882233CD2
:100E3000172C9CD8DFE804F08672685D5B59575523
:100E400053514F4D4B43413F3D3B393735333129AA
:100E5000A4F500545B4804EBC21421B203B0BDE812
:100E6000F04004B001F086B807EE902A9FED5D7A5D
:100E70005448F8EE676AC6EE877AC0ED137A03B07D
:100E8000BDE8F04004B000F0AFBD09214D4803B00B
:100E9000BDE8F04004B001F087B90821F6E707216A
:100EA000F4E70621F2E70521F0E70421EEE703214C
:100EB000ECE70221EAE70121E8E70021E6E7092162
:100EC000404803B0BDE8F04004B001F009B9082182
:100ED000F6E70721F4E70621F2E70521F0E7042110
:100EE000EEE70321ECE70221EAE70121E8E7002130
:100EF000E6E7384A002134480324374B11804FF489
:100F0000803204801A6032E700232F4C31484FF4BE
:100F10008031314A23800380116028E72E4B4FF641
:100F2000FF7E2C4A00211868168800F100552B4FCF
:100F3000254C2E8020F807E04FF48030218011806E
:100F4000186014E720490120224B002208801A80F3
:100F50000DE75209032A00F2A181DFE812F0A60191
:100F6000AB01A1019B0107EE902A9FED1E7A154867
:100F7000F8EE676AC6EE877AC0ED1C7A03B0BDE86A
:100F8000F04004B000F07CBD07EE902A9FED147A8B
:100F90000C48F8EE676AC6EE877AC0ED197A03B09E
:100FA000BDE8F04004B000F053BD07EE902A9FED7D
:100FB0000D7A0448F8EE676AC6EE877AC0ED187AB3
:100FC000EDE700BFE4980024D098002444070024F3
:100FD000CC980024CE9800240C00002402000020AD
:100FE0000080FF430000FE4207EE902A1FED037AC7
:100FF000BD48F8EE676AC6EE877AC0ED1B7ABDE79A
:1010000007EE902A9FEDB97AB748F8EE676AC6EE08
:10101000877AC0ED167A03B0BDE8F04004B000F066
:10102000FFBC07EE902A9FEDB27AAF48F8EE676AF0
:10103000C6EE877AC0ED157AEDE707EE902A9FEDB0
:10104000AC7AA948F8EE676AC6EE877AC0ED127AE4
:1010500015E707EE902A9FEDA67AA34BF8EE676A94
:10106000C6EE877AC3ED217A81E69F4B520983F859
:1010700088207CE607EE902A9FED9D7A9A4BF8EE49
:10108000676AC6EE877AC3ED1E7A70E607EE902A8D
:101090009FED977A944BF8EE676AC6EE877AC3EDB8
:1010A0001D7A64E607EE902A9FED917A8E48F8EE5D
:1010B000676AC6EE877AC0ED0C7A03B0BDE8F040EF
:1010C00004B000F01FBC07EE902A9FED897A864895
:1010D000F8EE676AC6EE877AC0ED0B7AEDE707EEA9
:1010E000902A9FED837A8048F8EE676AC6EE877A89
:1010F000C0ED0A7AE1E707EE902A9FED7D7A7A4803
:10110000F8EE676AC6EE877AC0ED097AD5E707EE92
:10111000902A9FED777A7448F8EE676AC6EE877A70
:10112000C0ED107AC9E707EE902A9FED717A6E48FC
:10113000F8EE676AC6EE877AC0ED0F7ABDE707EE74
:10114000902A9FED6B7A6848F8EE676AC6EE877A58
:10115000C0ED0E7AB1E707EE902A9FED657A6248FE
:10116000F8EE676AC6EE877AC0ED0D7AA5E707EE5E
:10117000902A9FED607A5C4BF8EE676AC6EE877A3C
:10118000C3ED087AF3E507EE902A9FED5A7A564BA5
:10119000F8EE676AC6EE877AC3ED047AE7E507EEF4
:1011A000902A9FED537A5048F8EE676AC6EE877A28
:1011B000C0ED1F7A03B0BDE8F04004B000F006BCFB
:1011C00007EE902ADFED4A6AB7EE007A464BB8EE9A
:1011D000676AC6EE267A77EE877AC3ED077AC6E5A8
:1011E00007EE902A9FED437A3F4BF8EE676AC6EE12
:1011F000877AC3ED067ABAE507EE902A9FED3C7A2E
:10120000394BF8EE676AC6EE877AC3ED027AAEE52F
:101210005209032A1BD8DFE802F035393117520989
:10122000032A14D8DFE802F026221E1A07EE902ABD
:101230009FED317A314BF8EE676AF7EE007AE6EE11
:10124000C77AC3ED007A92E5274B06221A75264825
:1012500003B0BDE8F04004B000F042BB224B0622D0
:101260001A71F4E7204B04221A71F0E71E4B022298
:101270001A71ECE71C4B01221A71E8E71A4B0422A1
:101280001A75E4E7184B01221A75E0E7164B0222A3
:101290001A75DCE7144B062283F8682012486DE6C5
:1012A000114B042283F86820F8E70F4B012283F8E2
:1012B0006820F3E70C4B022283F86820EEE7214612
:1012C000094803B0BDE8F04004B000F063BE00215F
:1012D0002046FFF7FBFC5BE5114644F080000192DD
:1012E000FFF7F4FC019A92E5E49800240080FF43A4
:1012F0000000FE4200007F430000803C8407002481
:1013000010B5032286B000244FF0FF310123029272
:1013100001948DF81430CDE9034104F0C1FE094B6E
:1013200002A9A3FB0030C009049001A804F0D0FB7F
:101330002246054901A804F045FC01A804F030FC50
:1013400006B010BD89888888150C000880B5012179
:10135000E8B04C4801F02CF801214A4800F048FF61
:10136000494E484800F040FF464886ED000A00F02C
:101370005BFF464B464D474883ED000A00F0E4F81A
:101380000021444800F09EFE4FF440732846424C32
:101390002B8050F8041B02F0A1FA05F1080002F0BE
:1013A00013FA642004F0E0FC3C4A0021204613F0CC
:1013B0007DFAD6ED007A9FED3A7A00214BF67F3325
:1013C00020AE67EE877A44F8081CBDEEE77A17EE88
:1013D000101AF8EEC76A994277EEE67A28BF1946E6
:1013E00044ED037A44F8041CFFF78AFF2D49254891
:1013F00000F0F6FE2C4802F0A5FAB0B3902244A803
:10140000D5E92B341F1B04EBC40C24D4002FF1D0DE
:10141000A34224D0D5F8A430013403EB0C1113F00F
:1014200037FAD5F8A830C5F8B04044A99C42A4EBDF
:1014300003044FF09002304628BFC5F8B04013F0C7
:1014400027FA24A98022684613F022FA96E80F00B2
:10145000FFF772FCD2E7D5F8A8100F44D6E7902228
:101460000021304613F022FAEBE7104802F0ACF905
:101470000D4802F06BFA064A0D49101D02F058FAA9
:10148000BCE700BF44070024E0980024DC98002457
:1014900088070024E49800240C0000C000EE02003D
:1014A0000AD7233C550A00088C0700249007002423
:1014B000A10B000810B51A4800241A4A1A49046002
:1014C00044610462C46312F031FC1848184B4FF4B5
:1014D00040714460C0F89C3040F20F73016000F12D
:1014E000B401C0F8A03040F20113C0F8AC40C0F81D
:1014F000B040104C0B4AC0E929130F4912F016FCFA
:101500002046FFF799FB074A0C49204612F00EFCD3
:10151000044A0B490B48BDE8104012F007BC00BF5D
:101520004407002400000024450A0008880700241E
:101530000080707FE49800244D0A0008490A0008E2
:10154000510A0008000000C02DE9F047054600F5EB
:10155000827400F21C4600F2BC6800F50E792DED95
:10156000068B82B046E0F4EE487AF1EE10FA78FE8F
:10157000277A06F5A870C6ED007A012195ED000ADC
:10158000019011F0DFFD95ED0D0A0121019811F098
:1015900049FE95ED0E0A0221019811F043FE95EDEA
:1015A000100A0421019811F03DFED5ED0F7AF5EEF9
:1015B000C07AF1EE10FA40F2B080B7EE007AF4EEA5
:1015C000477AF1EE10FA77FE277A4046C6ED547A54
:1015D00095ED000A08F1440812F0C4F82C34D5F84F
:1015E000803030364C4548F83C3CEB6F48F8403C86
:1015F00000F09680B7EE008AD5ED007AF6EE008A0C
:10160000DFEDB39ADFEDB3AA012788EE277AC4EDA8
:10161000047A2046C4ED029AC4ED018A04F59A7A50
:10162000C4ED038AC4ED06AAB0EE690A9FEDAAAA2A
:1016300088FEAA9A89FE489A84ED057A12F08CF801
:1016400084F8297084ED070A204684F82870B0EEEB
:101650004A0A2B7984ED018A082B84ED02AA28BF5F
:101660000023237012F078F884ED039A84ED070AC2
:101670005046D5ED007AB0EE690AC4ED4F9A88EE77
:10168000277AC4ED517AC4ED4E8AC4ED508AC4ED78
:1016900053AACDF804A084ED527A12F05DF884F8D4
:1016A0005D7184F85C7184ED540A2B7D84ED4E8A63
:1016B000082B019828BF002384F8343195ED060AE1
:1016C00020EE0A0A84ED4F0A12F046F839463046F9
:1016D00084ED540A84ED509A95ED000A11F032FD24
:1016E00095ED090A3946304611F09CFD95ED0A0A40
:1016F0000221304611F096FD95ED0C0A042130468A
:1017000011F090FDD5ED0B7AF4EEEA7AF1EE10FAD5
:101710003FF629AFDFED717A2BE7DFED707A54E702
:10172000F7EE008AD5ED007A4FF07C549FED688A81
:10173000002705F55B7088EEA77AC5EDDF7AC5F85E
:10174000704340F20116C5F8784385EDDD8AC5F88F
:101750008473B0EE480A019085EDE07A11F0FCFF49
:1017600095F84430D5ED127A082B019885EDE20A00
:10177000B0EE670A28BF0023C5EDDD7AA5F89463B3
:1017800085F86C3311F0E8FFB0EE407AD5ED007AC1
:1017900005F56670EB6CB0EE480A85EDE27A88EEEE
:1017A000A77AC5EDEA7AC5F87033C5F89C43C5F849
:1017B000A44385EDE88AC5F8B073019085EDEB7A16
:1017C00011F0CAFF95F8503085EDED0A082B95ED24
:1017D000150A019828BF0023A5F8C06385EDE80A23
:1017E00085F8983311F0B8FFB0EE407AD5ED007A65
:1017F00005F57170AB6DB0EE480A85EDED7A88EEB7
:10180000A77AC5EDF57AC5F89C33C5F8C843C5F885
:10181000D04385EDF38AC5F8DC73019085EDF67A47
:1018200011F09AFF95F85C3085EDF80A082B95EDDC
:10183000180A019828BF0023A5F8EC6385EDF30A88
:1018400085F8C43311F088FFB0EE407AD5ED007A08
:1018500005F57C706B6EB0EE480A85EDF87A88EE7F
:10186000A77AC5F8C83305F580630190C3ED007A07
:1018700005F2044383ED007A05F58163C5F8F4436E
:10188000C5F8FC4305F20C4485EDFE8A1F6011F09B
:1018900063FF84ED000A95F8683095ED1B0A082B6C
:1018A0000198A5F8186428BF002385EDFE0A85F885
:1018B000F03311F051FF002284ED000A2B6F85F800
:1018C0008A20C5F8F43302B0BDEC068BBDE8F08782
:1018D0000000C842000000000000DC430AD723BC1F
:1018E000027900F59A71037D072A88BF0022072B31
:1018F00088BF002380F804212C3080F80C3281420C
:10190000F8D1704770B5044682B000F21C4500F271
:101910006C562EE0F4EE477AF1EE10FA77FE277A55
:10192000C5ED547A2846012194ED090A11F07AFC9C
:10193000284694ED0A0A022111F074FC284694ED21
:101940000C0A042111F06EFCD4ED0B7AB7EE007A8C
:10195000F5EEC07AF1EE10FA2BD9F4EE477A2B4669
:101960003035F1EE10FA77FE277AB542C3ED007AF2
:1019700027D005F5A87094ED0D0A0121019011F012
:1019800051FC94ED0E0A0221019811F04BFC94EDEC
:10199000100A0198042111F045FCD4ED0F7AB7EE3E
:1019A000007AF5EEC07AF1EE10FAB3D8DFED067AE0
:1019B000B6E72B463035DFED047AB542C3ED007A49
:1019C000D7D102B070BD00BF0AD723BCD0F88010B9
:1019D00000F5D863C26F00F69C00596043F8442BB1
:1019E0008342FAD1704700BF10B5F2EE007A90F84A
:1019F000443090ED120A0446082B00F55B7020EE8F
:101A0000270A28BF002384EDDD0A84F86C3311F027
:101A1000A3FEE36C84EDE20AC4F8703310BD00BF8E
:101A200010B590F85030044690ED150A00F5667038
:101A3000082B84EDE80A28BF002384F8983311F0BE
:101A40008BFEA36D84EDED0AC4F89C3310BD00BF7E
:101A500010B590F85C30044690ED180A00F57170EE
:101A6000082B84EDF30A28BF002384F8C43311F057
:101A700073FE636E84EDF80AC4F8C83310BD00BF6E
:101A800010B5F2EE007A90F8683090ED1B0A04462B
:101A9000082B00F57C7020EE270A28BF002384ED78
:101AA000FE0A84F8F03311F057FE04F20C4383ED84
:101AB000000A236FC4F8F43310BD00BF2DE9F04FC6
:101AC000044600F55B70DFF89CB304F18B0804F268
:101AD000BC6704F1940A04F5827504F26C562DED8E
:101AE0000A8B87B09FEDDAAACDE9041211F07AFCD7
:101AF00004F56670F0EE40AA11F074FC04F5717004
:101B0000B0EE409A11F06EFC04F57C70F0EE408A65
:101B100011F068FC04F19203F0EE409A039323E184
:101B2000DAED077AB7EE008AD4ED1E6A94ED0D7AED
:101B30000121304678EE677AB0EE480AA6EEE70A51
:101B400020EE070A11F06EFBDAED077AB0EE480AD4
:101B5000D4ED1E6A78EE677A94ED0E7A0221304653
:101B6000A6EEE70A20EE070A11F05CFBDAED077A31
:101B7000B0EE480AD4ED1E6A78EE677A94ED107ADA
:101B800004213046A6EEE70A20EE070A11F04AFBD0
:101B9000DAED077AB0EE480AD4ED1E6A78EE677A7D
:101BA00094ED097AA6F5A8700121A6EEE70ACDE921
:101BB000010A20EE070A11F035FBDAED077AB0EEE4
:101BC000480AD4ED1E6A78EE677A94ED0A7A02210B
:101BD0000198A6EEE70A20EE070A11F023FBDAEDE2
:101BE000077AB0EE480AD4ED1E6A78EE677A94ED73
:101BF0000C7A04210198A6EEE70A20EE070A11F0FC
:101C000011FB4946019811F095FB94F88810029A4F
:101C1000012940F2D780DAED0E7A39EE888A20EE7B
:101C2000270A20EE080A85ED010A85ED4E0A894B48
:101C30002846DAED157AB7EE00BA93ED008A92EDF8
:101C4000000A67EEAACA94ED037A27EE888A9BED14
:101C500000CA30EE070AD4ED06BA27EE8CCA67EE4A
:101C6000ABBA30EE080A30EE0C0A30EE2C0A85EDE5
:101C7000020A11F071FD85ED070AD4ED077A05F52A
:101C80009A72BAEC017A27EE888A10460192A7EE82
:101C9000278AA7EE8C8AA7EEAC8AA7EEAB8AB0EEB5
:101CA000480A85ED4F8A11F057FD85ED540A94EDF1
:101CB000047A2846DFED666A39EE077A37EE287A2D
:101CC00087FE267A87FE4B7A85ED037AD4ED087A73
:101CD00079EE277A77EEA87AC7FEA67AC7FECB7A86
:101CE000C5ED507A11F07EFB019AF0EE40BA104635
:101CF00011F078FB94ED027A494630467BEE477A44
:101D000027EE808AA7EE2B8A11F014FB94F8882026
:101D100002F0FD02012A40D19AED0D7AD4ED217A2C
:101D200020EE070AD4ED206AD4ED1D5A39EE8B7AE5
:101D30009AED066A60EE277AA5EEC6BA67EEA67A35
:101D400067EE877A67EE8B7A3846C7ED027AB0EE97
:101D5000480A2C3511F022FD039B3AEE00AA4437C5
:101D6000984506F1300636D018F8012B002A14BF2A
:101D70004FF001094FF000093FF4D2AE07EE902A70
:101D80009FED356AB8EE677AF7EE007AC7EE066A1D
:101D900077EEE67ACAED077AC4E694ED217AD4EDBF
:101DA000207A20EE070A94ED1D6ADAED066A39EE14
:101DB0008B7A60EE277AA6EE66BA67EE877A67EED0
:101DC0008B7AC1E779EE887A27EE808A85ED018AE1
:101DD00085ED4E8A2BE7214B4BF6803620494BF69A
:101DE0007F30F1EE0C7A93ED006AD3E90142CAEE3E
:101DF000276A2244204403EB8404A1FB02C7551C3C
:101E0000BF0A06FB172203EB8202D2ED037AA1FB85
:101E10000572A1FB0071920A890A06FB125506FBA6
:101E20001101596003EB850393ED037A049B37EEB0
:101E3000677AC4ED036AC3ED006A059BE7EE067A94
:101E4000C3ED007A07B0BDEC0A8BBDE8F08F00BF90
:101E500000000000080000240000A842000000C0AC
:101E6000F11976058407002470B54FF0070C05467C
:101E70002DED048B82B090F88A3001920133324C00
:101E80000CF1FF32A4FB0304181B04EB5004A4085C
:101E9000C4EBC4041C1B2819E3B290F88B6046B154
:101EA00012F0FF0CEAD185F88A3002B0BDEC048B49
:101EB00070BD07EE901ADFED259AB2EE089A85F80C
:101EC0008A30F8EE670A80F88B10B0EE000ADFED7A
:101ED000208A05EB840470EEE90AC0EE890A11F04D
:101EE000FFFFF0EE407AB0EE000A67EEA87AC4ED8C
:101EF000257A95F88A30E91805EB830291F88B3042
:101F000092ED258A013300EE903AF8EEE00A70EE89
:101F1000E90AC0EE890A11F0E3FFDDED017ADFED99
:101F20000D6A95F88A30F8EE677A05EB8305A0EE26
:101F3000688A87EEA67A85ED3A8A85ED337A02B013
:101F4000BDEC048B70BD00BF2549922400008A427D
:101F50000000DC430000FE4200F18B03923013F8D6
:101F6000012B8A4202D1002203F8012C8342F6D1D0
:101F7000704700BF07EE101AF0EE006AF7EE007A25
:101F8000034BBAEEE97AE7EE667AC3ED007A704762
:101F900008000024014B1970704700BFCC98002442
:101FA00010B50022464C227091F800C080F804C0A1
:101FB000D1F804C0C0F808C0D1F808C0C0F80CC0FF
:101FC000D1F80CC0C0F810C091F810C080F814C04F
:101FD000D1F814C0C0F818C0D1F818C0C0F81CC09F
:101FE000D1F81CC0C0F820C0D1F820C0C0F824C06F
:101FF000D1F824C0C0F828C0D1F828C0C0F82CC03F
:10200000D1F82CC0C0F830C0D1F830C0C0F834C00E
:10201000D1F834C0C0F838C0D1F838C0C0F83CC0DE
:10202000D1F83CC0C0F840C091F840C080F844C02E
:10203000D1F844C0C0F848C0D1F848C0C0F84CC07E
:1020400091F84CC080F850C0D1F850C0C0F854C0CE
:10205000D1F854C0C0F858C091F858C080F85CC09E
:10206000D1F85CC0C0F860C0D1F860C0C0F864C0EE
:1020700091F864C080F868C0D1F868C0C0F86CC03E
:10208000D1F86CC0C0F870C0D1F878C0C0F87CC07E
:10209000D1F87CC0C0F880C0D1F880C0C0F884C03E
:1020A00091F884C080F888C091F8851080F88A2063
:1020B00080F88910FFF748FA0123237010BD00BF94
:1020C00004000024044A01EB0111044B126803EBE5
:1020D000C1010260FFF764BFE098002410000024F3
:1020E00010B5074BA2B00446882203EB01316846C5
:1020F00012F0CEFB69462046FFF752FF22B010BD1A
:102100000000009003790B7083684B60C3688B609C
:102110000369CB60037D0B7483694B61C3698B6179
:10212000036ACB61436A0B62836A4B62C36A8B6248
:10213000036BCB62436B0B63836B4B63C36B8B6330
:10214000036CCB6390F8443081F84030836C4B646F
:10215000C36C8B6490F8503081F84C30436D0B6544
:10216000836D4B6590F85C3081F85830036ECB6519
:10217000436E0B6690F8683081F86430C36E8B66EE
:10218000036FCB66C36F8B67D0F88030CB67D0F816
:102190008430C1F8803090F8883081F8843090F82D
:1021A000893081F88530704710B5A4B00A460A4CD2
:1021B00002A9FFF7A7FF0949204601EB023101F10F
:1021C0008802019102F04CFE02AB88220199204660
:1021D00002F042FE24B010BD44070024000000902D
:1021E000143001F011BA00BF143001F009BA00BF79
:1021F00038B500F1140504462DED028B284601F098
:10220000F1F9284601F0FCF92846B0EE408A01F0C9
:10221000E5F9D0ED007AF8EE677A88EE277ABDEC22
:10222000028B84ED0E7A38BD90ED0E0A704700BF28
:10223000253001F099BD00BF10B540F203338EB0D8
:1022400000244FF60B7240F20341ADF8083009A8A4
:102250000123ADF81020ADF824202246ADF80C1073
:102260000094029907940C94CDE90544CDE90A4401
:1022700001F0A2FB04A8012322460399009401F077
:102280009BFB09A801F07EFC10B901200EB010BD27
:1022900004A801F077FCA0420CBF022020460EB03B
:1022A00010BD00BF2DE9F04103239AB0012700249F
:1022B0000646CDE914373B4BCDE9104340F20453B9
:1022C000CDE91647ADF84830FFF7B6FFB8420546EE
:1022D00025D0022845D040F60132334B0DF12C08B1
:1022E0001894ADF82C200B981997CDF84A3000F0CF
:1022F000E3F810A906F13C0003F052F93020032264
:102300004FF07E5341460D930E93CDE90B02F26BD5
:1023100006F1140001F02AF91AB0BDE8F08110238B
:10232000214A06A906908DF828300DF12C081F4B84
:10233000CDF84A2007930294CDE91804CDE90804AA
:1023400002A801F091FE0823029A03A94046ADF8C5
:102350000C508DF80E40049505930B9400F0ECF8AA
:10236000C7E700200121104B0DF12C083A460094DC
:10237000CDF84A304FF60B730C94ADF82C30234651
:10238000CDE9180140F601314046ADF81810069924
:10239000CDE90D4401F010FB2146404601F0FEFB63
:1023A000A7E700BF04020404040604030704010BAA
:1023B0002DE9F04704462DED028B82B000294DD067
:1023C000012140F2011200230091ADF804208DF8A4
:1023D0000630364A0127364B04F10409354904F129
:1023E0002908626040F20272A36040F60663E16071
:1023F00004F1250AA4F82520A4F82930278284F8BE
:10240000277084F82B7003F04DFE054603F0AEFCF8
:102410006946064650BB4DB304F130008DF8067096
:1024200003F0C6FD072D3CD104F114052046FFF74B
:1024300039FF284601F0E4F82846B0EE408A01F062
:10244000CDF8D0ED007AF8EE677A88EE277A84ED41
:102450000E7A02B0BDEC028BBDE8F08740F20113AA
:1024600000918DF80610ADF80430B2E704F13000A9
:1024700003F09EFD072D11D04946204602F020FCB6
:102480000EB9002DD0D1504601F092FB404601F02C
:102490008FFB04F1120000F079F9C5E7002EF2D1AC
:1024A000C2E74946204602F00BFCBDE705080509D6
:1024B00005070506050A060610B584B00346012483
:1024C000ADF8040003A8ADF80C30ADF80E4001F0F3
:1024D0006FFB214603A801F047FC204603F044FCB3
:1024E000002103A801F040FC204603F03DFC2146FA
:1024F00003A801F039FC04B010BD00BF10B5C2F351
:10250000002384B00C46017C8DF80D2043EA440280
:10251000FA2402238DF80C2003AA009401F03AFE5D
:1025200018B10124204604B010BD04460A2003F06F
:102530001BFC204604B010BD034670B543F8042BC5
:10254000044684B007C983E80700A37983B91A2138
:102550000B461E22FA2523742046ADF80C200223D8
:1025600003AA009501F016FE28B1012004B070BD49
:102570001B210B46EDE70A2003F0F6FB4FF4B8529F
:1025800000950223ADF80C20204603AA217C01F01F
:1025900001FE0028E9D10A2003F0E6FB41F20272B5
:1025A00000950223ADF80C20204603AA217C01F0FF
:1025B000F1FD0028D9D10A2003F0D6FB04220095B2
:1025C0000223ADF80C20204603AA217C01F0E2FD95
:1025D0000028CAD10A2003F0C7FB06220095022377
:1025E000ADF80C20204603AA217C01F0D3FD002881
:1025F000BBD10A2003F0B8FB41F208220095022368
:10260000ADF80C20204603AA217C01F0C3FD002870
:10261000ABD10A20064603F0A7FB0095022303AACC
:10262000217C2046ADF80C6001F0B4FD00289CD15F
:10263000304603F099FB009522790C232046002AAE
:102640008DF80C3003AA4FF0020314BF622142211F
:102650008DF80D10217C01F09DFD002885D13046BC
:1026600003F082FB2279D4E902310B43DBB20AB9D1
:1026700043F0400362790AB143F020030E22FA25A9
:102680008DF80D302046009502238DF80C2003AA0A
:10269000217C01F07FFD00287FF467AF0A2003F062
:1026A00063FB102200950223ADF80C20204603AAFC
:1026B000217C01F06FFD00287FF457AF0A2003F062
:1026C00053FB122100950223ADF80C1003AA217CC4
:1026D000204601F05FFD00287FF447AF0A2003F099
:1026E00043FB012209212046FFF708FF003818BFED
:1026F00001203BE7F0B5102387B0234C01220025D1
:102700000126002702A920460195CDE902234FF4B6
:102710008052CDE9046709F011FF642004F09CF8B1
:1027200002A94FF480522046CDE904670226102703
:10273000CDE9026709F002FF0322102302A9204617
:10274000CDE9022300230422CDE904234FF4805273
:1027500009F0F4FE40F23223042202A9019310236F
:102760002046CDE90223019A012305924FF48052BD
:10277000049309F0E3FE40F60601204609F0FEFE50
:10278000284607B0F0BD00BF84A100241C4B0022E6
:102790001C494FF0400C30B5054689B00220596005
:1027A00007219A601A620124DA620A224FF4006E4D
:1027B000DC6006922022CDE9000104200821CDE949
:1027C000020103201021CDE9040108206946C3E974
:1027D00004024FF4C072181DC3E906C24FF48052C0
:1027E000C3E909E209F080FE38B92846FFF782FF05
:1027F000003818BF012009B030BD204609B030BDF7
:1028000080A1002440410052614A0021D0B51368E4
:102810008EB00A91002B40F0B9805E4B01214FF63B
:1028200083700C2411600221D3F8D42000260327E2
:1028300042F48052C3F8D420D3F8D42002F480525A
:102840000092009AD3F8E02042F01002C3F8E02092
:10285000D3F8E02002F010020192019AD3F8E020B0
:1028600042F04002C3F8E020D3F8E02002F040023A
:102870000292029AD3F8E02042F00802C3F8E02066
:10288000D3F8E02002F008020392039AD3F8E02084
:1028900042F48072C3F8E020D3F8E02002F48072A2
:1028A0000492049AD3F8E02042F08002C3F8E020BA
:1028B000D3F8E02002F080020592059AD3F8E020D8
:1028C00042F02002C3F8E020D3F8E02002F020021A
:1028D0000692069AD3F8E02042F00402C3F8E02002
:1028E000D3F8E0300C9403F0040307930323079A12
:1028F0000B93CDE9080108A9274805F053F848F2E1
:102900003712022308A925480C94CDE90823CDE904
:102910000A6705F047F84CF20372022308A9204821
:102920000C94CDE90823CDE90A6705F03BF840F2A5
:10293000FF62022308A91B480C94CDE90823CDE9C6
:102940000A6705F02FF84FF60C72022308A9164803
:102950000C94CDE90823CDE90A6705F023F84FF67A
:102960003F02022308A911480C94CDE90823CDE9C0
:102970000A6705F017F82022022308A90A480C94D8
:10298000CDE90A67CDE9082305F00CF80EB0D0BDFB
:102990007CA100240044025800100258001802587C
:1029A000000C025800200258001C02580014025863
:1029B0002DE9F04FDFF8108406460D46144608F165
:1029C00018002DED028B89B000AF02F0E1FED8F8BF
:1029D000183073B3D8F81C30D8F80490002B436932
:1029E0000BBF4FF0080A4FF0100A4FF0020B4FF0E8
:1029F000040BB9F1000F2AD0A200EA46012B02F124
:102A0000070222F00702ADEB020D6846ADEB020DA6
:102A1000694600F03F81022B00F0D680002B6FD07A
:102A20002246C847D5462437BD46BDEC028BBDE8DB
:102A3000F08FD8F81C30002BF5D0D8F804904FF068
:102A4000080A4FF0020B4369B9F1000FD4D1FB61C2
:102A5000D8F80030BB61002BE5D0D54802F00AFF62
:102A60006B46BBF1020F786108EE103AFB6900F08B
:102A700083816A465146A2EBC40295466200EA464B
:102A8000B2FBFBF2AAEBC40085460AEB8200EE46DD
:102A9000F861ADEB010DF8690EEB820CC7F810C0C0
:102AA000EC46ADEB010D00EB8201CCF80400CCF854
:102AB000081001EB82013869E946CCF80C1000EBF4
:102AC0008201CCF800A001EB8202C9E900E0C9E96B
:102AD0000212012B00F06483022B00F06C82002BA9
:102AE00000F08081620849466046BB69984718EE4D
:102AF000103A24379D46BD46BDEC028BBDE8F08FF1
:102B0000002C8DD01A46D8ED0C6A9FEDB27A84461F
:102B1000331D36F922E00CF1080C07EE90EA33F988
:102B200022E00232F8EEE77A944267EE877A67EEA7
:102B3000A67A4CED027A07EE90EAF8EEE77A67EEB5
:102B4000877A67EEA67A4CED017AE2D8F9612246DF
:102B5000C847984ED8ED0D6A0020F9692B1D9FEDEE
:102B60009E7A9FED9E6ADFED9E5A22E0F4EEC67AD1
:102B7000F1EE10FAC0F2C88447F6FE72D1ED017A88
:102B800045F8202066EEA77AF4EEC77AF1EE10FA47
:102B900040F2F080F4EEC67AF1EE10FAC0F2D5847D
:102BA00047F6FE7243F820200230083184427FF657
:102BB00039AFD1ED007A66EEA77AF4EEC77AF1EE7E
:102BC00010FAD3D83246D9E7002C3FF429AFD8ED1C
:102BD0000C6A84469FED787A0022331D8E4656F8A3
:102BE00022100CF1080C07EE901A53F82210023252
:102BF000F8EEE77A944267EE877A67EEA67A4CEDB4
:102C0000027A07EE901AF8EEE77A67EE877A67EEB7
:102C1000A67A4CED017AE2D871462246C7F81CE04C
:102C2000C847664ED8ED0D6A0020F9692B1D9FED4F
:102C30006A7A9FED6A6ADFF894C120E0F4EEC67A02
:102C4000F1EE10FAC0F279843246D1ED017A45F8FE
:102C5000202066EEA77AF4EEC77AF1EE10FA40F281
:102C60008780F4EEC67AF1EE10FAC0F25E84324646
:102C700043F820200230083184427FF6D3AED1EDF4
:102C8000007A66EEA77AF4EEC77AF1EE10FAD5D89C
:102C90006246DAE7002C3FF4C3AED8ED0C6A8646F4
:102CA0009FED477A4FF0000C331D56F82C200EF1A3
:102CB000080E82F40002A2F5000207EE902A53F8F3
:102CC0002C200CF1020CF8EEE77A82F40002644545
:102CD000A2F5000267EE877A67EEA67A4EED027AD9
:102CE00007EE902AF8EEE77A67EE877A67EEA67A23
:102CF0004EED017AD9D8F9612246C847314ED8ED58
:102D00000D6A0020F9692B1D9FED337A9FED336A20
:102D1000DFF8BCC01FE0F4EEC67AF1EE10FAC0F2A4
:102D2000FC833246D1ED017A45F8202066EEA77A81
:102D3000F4EEC77AF1EE10FA18D9F4EEC67AF1EE95
:102D400010FAC0F2DA83324643F82020023008310C
:102D500084427FF667AED1ED007A66EEA77AF4EE94
:102D6000C77AF1EE10FAD6D86246DBE76246EBE7A7
:102D700062467DE7324615E7A100D6466208073174
:102D800021F00701ADEB010DEA46ADEB010D6946FF
:102D9000ADEB0E0D0AEB8200EC46ADEB0E0D01EB38
:102DA0008202F861E946CCE900A0C9E9001290E688
:102DB000D4A100240280FFFF000000300082FF7FCA
:102DC0000000003482FF7F00B8A10024007E008054
:102DD0007E0080FF0000003804FF7FBF04FF7F3FBC
:102DE00000FEFF46002C00F0C982BBF1020FD8F8AC
:102DF000242000F0FA827969C7F8049002EB810E72
:102E00005FED0C5A8A00DCF808100EF104007A61BC
:102E10001A46DCF80C303B61331DD7F810903D6149
:102E2000FD69C7E902CB8C46834636F92210D8EDFE
:102E30000C7A06EE101A33F9221006EE901A3EF9BB
:102E40002210B8EEC66A07EE101AF8EEE66A3BF9F1
:102E50002210B8EEC77A26EE256A66EEA56A27EE3E
:102E6000257A26EE276A66EEA76A27EE277A07EE0E
:102E7000901A51080232F8EEE77A0AEB8100944288
:102E800080ED006A05EB810067EEA57AC0ED006A6F
:102E90000CEB810009EB810180ED007A98ED0C7A52
:102EA00067EE877AC1ED007ABFD8D7F804903D6904
:102EB000D7E902CB60466208BB6949469847D8F813
:102EC0002C307A69D8ED0D6A1A441FED3D7A1FED5A
:102ED0003D6A2B1D904602F1040A5FED3F5A002225
:102EE000A84ED9E900EC51E0F4EEC67AF1EE10FA02
:102EF000C0F2C78247F6FE7045F822000CEB0100D5
:102F0000D0ED007A66EEA77AF4EEC77AF1EE10FA09
:102F10004BD9F4EEC67AF1EE10FAC0F2BA8247F657
:102F2000FE70BBF1020F43F822002BD0D9F8080045
:102F30000844D0ED007A66EEA77AF4EEC77AF1EE97
:102F400010FA36D9F4EEC67AF1EE10FAC0F2CD825C
:102F500047F6FE7048F82200D9F80C000144D1ED84
:102F6000007A66EEA77AF4EEC77AF1EE10FA1ED96F
:102F7000F4EEC67AF1EE10FAC0F2AF8247F6FE71B7
:102F80004AF82210023294427FF6B1AD51080EEB9E
:102F900081008900D0ED007A66EEA77AF4EEC77A58
:102FA000F1EE10FAA0D83046A6E73046B9E7314630
:102FB000E6E73046CEE7002C00F0E081BBF1020FDF
:102FC000D8F8243000F0E1817A69DCF8081003EBCE
:102FD000820EC7F804909300DFED6B5A0EF10400E7
:102FE00000227B61DCF80C303B61331DD7F8109078
:102FF0003D61FD69C7E902CB8C46834656F8221035
:10300000D8ED0C7A07EE101A53F82210B8EEC76A02
:1030100007EE101A5EF82210F8EEC76A07EE101AD3
:1030200026EE256A5BF82210B8EEC77A66EEA56A2E
:1030300026EE276A27EE257A66EEA76A27EE277A1C
:1030400007EE901A51080232F8EEE77A0AEB810097
:10305000944280ED006A05EB810067EEA57AC0ED31
:10306000006A0CEB810009EB810180ED007A98ED9C
:103070000C7A67EE877AC1ED007ABFD8D7F8049052
:103080003D69D7E902CB60466208BB69494698476B
:10309000D8F82C307A69D8ED0D6A1A449FED3E7A43
:1030A0009FED3E6A131D9246DFF8E4C00022FB61EB
:1030B0002B1D364ED9E9008E4EE0F4EEC67AF1EEC5
:1030C00010FAC0F2FC81304645F822000EEB0100F8
:1030D000D0ED007A66EEA77AF4EEC77AF1EE10FA38
:1030E00049D9F4EEC67AF1EE10FAC0F2EF8130461B
:1030F000BBF1020F43F822002AD0D9F80800084497
:10310000D0ED007A66EEA77AF4EEC77AF1EE10FA07
:1031100035D9F4EEC67AF1EE10FAC0F2C981304624
:103120004AF82200D9F80C000144D1ED007A66EE8D
:10313000A77AF4EEC77AF1EE10FA1ED9F4EEC67A49
:10314000F1EE10FAC0F2AD813146F86940F8221074
:10315000023294427FF6CBAC510808EB8100890023
:10316000D0ED007A66EEA77AF4EEC77AF1EE10FAA7
:10317000A3D86046A8E76046BAE76146E5E760463F
:10318000CEE700BF0280FFFF000000300082FF7F1B
:10319000007E00800000003404FF7FBF04FF7F3FFB
:1031A000002C00F0EB807A690021D8F82430C7F8B1
:1031B000109003EB820ED7F81C909300FD610EF186
:1031C00004021FED0C6A7B61331D154656F8212061
:1031D0004808D8ED0C6ABBF1020F82F40002A2F598
:1031E000000207EE902A53F8212082F40002B8EE84
:1031F000E77AA2F5000227EE067A07EE902A0AEB9C
:103200008002F8EEE77A27EE267A67EE867A82ED7C
:10321000007A09EB80024FEA800067EEA67AC2EDE1
:10322000007A27D05EF8212082F40002A2F5000285
:1032300007EE902A55F8212082F40002B8EEE77AD2
:10324000A2F5000227EE067A07EE902ADCF80820A5
:10325000F8EEE77A024427EE267A67EE867A82ED68
:10326000007A98ED0C7ADCF80C2067EE877A02443D
:10327000C2ED007A02318C42A8D8D7F8109060468F
:103280006208BB694946FD699847D8F82C307A69CD
:10329000D8ED0D6A1A441FED407A1FED406A131DE8
:1032A0009246DFF8C4C20022FB612B1DAB4ED9E968
:1032B000008E4EE0F4EEC67AF1EE10FAC0F2C58050
:1032C000304645F822000EEB0100D0ED007A66EEA4
:1032D000A77AF4EEC77AF1EE10FA49D9F4EEC67A7D
:1032E000F1EE10FAC0F2BF803046BBF1020F43F896
:1032F00022002AD0D9F808000844D0ED007A66EE02
:10330000A77AF4EEC77AF1EE10FA35D9F4EEC67A60
:10331000F1EE10FAC0F2AE8030464AF82200D9F839
:103320000C000144D1ED007A66EEA77AF4EEC77A7C
:10333000F1EE10FA1ED9F4EEC67AF1EE10FAC0F2F0
:103340008B803146F86940F82210023294427FF6B1
:10335000CEAB510808EB81008900D0ED007A66EE13
:10336000A77AF4EEC77AF1EE10FAA3D86046A8E780
:103370006046BAE76146E5E76046CEE72246494641
:103380006046BB699847FFF7B2BBC7F810B0002290
:1033900098ED0C6A331DDFED726AD7F81CB07869BE
:1033A00056F8221007EE901A53F82210B8EEE77A7A
:1033B00007EE901A51080232F8EEE77A27EE267AE5
:1033C0000AEB810E94420BEB810167EEA67A27EEA1
:1033D000067A67EE867A8EED007AC1ED007ADFD844
:1033E0008300D7F810B07B614DE61A46C7F810B0DD
:1033F00098ED0C6A331DDFED5B6AD7F81CB0786975
:1034000036F9221007EE101A33F9221007EE901A3F
:10341000B8EEC77A51080232F8EEE77A27EE267A3C
:103420000AEB810E94420BEB810167EEA67A27EE40
:10343000067A67EE867A8EED007AC1ED007ADFD8E3
:103440008300D7F810B07B6134E5F0EE675AFEEEEA
:10345000E45A15EE900A34E7F0EE675AFEEEE45AAD
:1034600015EE901A6EE7F0EE675AFEEEE45A15EE8E
:10347000900A3AE7F0EE675AFEEEE45A15EE900A2B
:103480004BE767EEA57AFDEEE77A17EE900A00B2F9
:1034900032E567EEA57AFDEEE77A17EE900A00B204
:1034A0003FE5F0EE675AFEEEE05A15EE901A4CE654
:1034B000F0EE675AFEEEE05A15EE900A30E6F0EEB6
:1034C000675AFEEEE05A15EE900AFDE5F0EE675AF7
:1034D000FEEEE05A15EE900A0AE667EEA57AFDEEDA
:1034E000E77A17EE901A09B24AE567EEA57AFDEE83
:1034F000E77A17EE900A00B22CE5F0EE675AFEEE7E
:10350000E45A15EE902A1FE467EEA57AFDEEE77AFD
:1035100017EE902A12B2FFF731BBF0EE675AFEEEBB
:10352000E45A15EE902AFFF7FDBBF0EE675AFEEE67
:10353000E05A15EE902AFFF79BBBF0EE675AFEEEBD
:10354000E05A15EE902AFFF780BB67EEA57AFDEEF4
:10355000E77A17EE902A12B2FFF724BB82FF7F00B2
:1035600000000030000000387E0080FF30B5184CAD
:10357000154685B0046004F1080EEC460FC98EE8CC
:103580000F00D4ED047AF5EEC07A8CE80F00F1EE6E
:1035900010FA1ADDB7EE006A94ED057A27EE277A65
:1035A000C6EE276A84ED0D7AC4ED0C6A6DB1204633
:1035B00040F8185F02F0ECF8064903690020064A5B
:1035C0002162A262E36005B030BD012005B030BDCC
:1035D000B8A100240020003000000030006808304E
:1035E000704700BFB1F5807F03680A4628BF4FF4DB
:1035F0008072B1F5807F9A6094BF002001207047EF
:103600000068183002F024B930B5046883B0084867
:103610000D46A368A26A216A9B00009004F118007D
:1036200002F0B8F80020C4E9000503B030BD00BFC7
:10363000B129000810B4074B4FF07E51302400220E
:10364000032019619C60D8605DF8044B5961C3E99F
:1036500006227047B8A1002438B50446104694F8F5
:1036600095301942237815D0032B19D094F898205F
:10367000002594F896300A4025700B40A26001F0B6
:10368000F8021B09F82A237100F08680092B73D9F0
:10369000002038BD032BFBD8DFE803F0112A5102CC
:1036A000F7291CD094F98E2094F88E30002AEFDB95
:1036B000E21801330020917384F88E3038BD94F8FD
:1036C000942094F8973022711940131F012B217315
:1036D00005D994F88F3003F0FD03012B45D1002369
:1036E000237018B19022211D11F0D2F8012038BDAD
:1036F00094F8973094F894201940131F2173012BEC
:1037000005D994F88F3003F0FD03012B29D1002354
:10371000237000284CD09022211D11F0B9F894F8A4
:1037200094200120032AB4D1237B772BB1D909221D
:10373000783B227184F8942084F8913038BD94F855
:10374000973094F894201940012A617300D181B117
:1037500018B19022211D11F09BF800230120237045
:1037600038BD022300202370DCE7022300202370F1
:1037700038BD00232371EBE70122072B227019D1FA
:1037800001F00703A56084F88F30CBB903221846F7
:1037900084F88E30227038BD0823237194F8993054
:1037A00000221940227084F8901000289AD19DE7D9
:1037B0000120B7E7082BF1D0284684F8943038BDB3
:1037C0004B077FF565AF8AE700220A230270037179
:1037D000704700BF704700BF30B5D0F80C44ADF261
:1037E000044D3CB3D0F80824D0F804349A4224D0D5
:1037F000EC460021E6460131D0F80834D0F8042424
:103800009B1AC3F30903002BF6D0D0F804345A1CDA
:103810000344C2F309021D79C0F80424D0F8082437
:10382000D0F804340EF8015B9A42E4D1D0F81024A9
:103830006046A0470DF2044D30BD0021EC46F5E78F
:10384000F8B5254CE378002B43D00B680E46002BCF
:103850003FD0002105460F465B1A032B30D96B5C25
:10386000294413F00E0F2BD003F00F03234493F8D9
:1038700018382BB3013B481C50FA83F0D4F80434B9
:10388000D4F80824013B9B1AC3F3090313B311F8BE
:1038900001CFD4F80434D4F80824013B9B1AC3F3B5
:1038A0000903002BF5D0D4F80834814203F101025A
:1038B0002344C2F3090283F804C0C4F80824DDD10C
:1038C00004372046FFF788FF3368BFB29F4239466E
:1038D000C2D3F8BDE370F3E7F0A10024CAB2114BE4
:1038E000A2F1010210B5B2FA82F282B00E4C520976
:1038F000ADF8041004600120A4F8011011461870FE
:10390000204600920AF048FE00230A20E37002F0ED
:103910002BFA009A2046054902B0BDE810400AF093
:10392000C1BE00BF44C40024F0A1002441380008F7
:1039300003684FF0010CC3F80C1483F803C0C3F8FC
:10394000102470470368D878704700BF0368D3F825
:103950000424C3F80824704730B54FF44072114C6A
:10396000114BA4F8012004F61805104A03F1100EBB
:1039700004F6280CC4F838284FF60F02A4F83C28A7
:10398000072284F83E280FCB85E80F009EE80F0041
:103990008CE80F002046064A0649BDE8304010F08A
:1039A000C5B900BFF0A100243C59010880707FF028
:1039B00000000024D537000810B592B0ADF804100F
:1039C0000180C9B2149C0B29C460C0E901233FD017
:1039D00090F801C0BCF10F0F3AD8022A3FD0032A59
:1039E00002D0012A00D000220E92012B02D0022B1D
:1039F00018BF0023022C0F932CD0032C2AD0012CAB
:103A000028D000230A29109327D85C4A02EB812290
:103A100002610A2914D8DFE801F0A39587796B5D6C
:103A20004F4133250600564BD3F8E01041F4806136
:103A3000C3F8E010D3F8E03003F480630C930C9BE0
:103A400001230DA9104603FA0CF30D9303F0AAFF0E
:103A500012B010BD0A291094D7D90022D8E711223C
:103A60000E92C2E7464BD3F8E01041F40071C3F860
:103A7000E010D3F8E03003F400730B930B9BDFE707
:103A80003F4BD3F8E01041F48071C3F8E010D3F855
:103A9000E03003F480730A930A9BD1E7384BD3F8E4
:103AA000E01041F08001C3F8E010D3F8E03003F0FB
:103AB00080030993099BC3E7314BD3F8E01041F031
:103AC0004001C3F8E010D3F8E03003F0400308935E
:103AD000089BB5E72A4BD3F8E01041F02001C3F86A
:103AE000E010D3F8E03003F020030793079BA7E72B
:103AF000234BD3F8E01041F01001C3F8E010D3F8E5
:103B0000E03003F010030693069B99E71C4BD3F8B3
:103B1000E01041F00801C3F8E010D3F8E03003F002
:103B200008030593059B8BE7154BD3F8E01041F094
:103B30000401C3F8E010D3F8E03003F00403049369
:103B4000049B7DE70E4BD3F8E01041F00201C3F86F
:103B5000E010D3F8E03003F002030393039B6FE718
:103B6000074BD3F8E01041F00101C3F8E010D3F89F
:103B7000E03003F001030293029B61E7000002586A
:103B80000044025808B5012143780069994089B280
:103B900004F010F9003818BF012008BD01230A46BF
:103BA0004178006903FA01F189B204F009B900BF54
:103BB0008378022B30B504468FB037D0032B33D037
:103BC000012B31D000230A93E378012B2AD0022B5A
:103BD00028D000230B93002320460C9302F01AFDFB
:103BE0000546204602F01EFD23780990082B13D8C5
:103BF000DFE803F01F3245586B7E91A40500594B56
:103C0000D3F8E02042F48072C3F8E020D3F8E0302B
:103C100003F480730893089B09A9284603F0C2FEA9
:103C20000FB030BD0B93D6E70A93CDE711230A936B
:103C3000CAE74C4B09A92846D3F8E02042F001021C
:103C4000C3F8E020D3F8E03003F001030093009BB9
:103C500003F0A8FE0FB030BD424B09A92846D3F8A7
:103C6000E02042F00202C3F8E020D3F8E03003F095
:103C700002030193019B03F095FE0FB030BD394B59
:103C800009A92846D3F8E02042F00402C3F8E02056
:103C9000D3F8E03003F004030293029B03F082FEAA
:103CA0000FB030BD2F4B09A92846D3F8E02042F0D1
:103CB0000802C3F8E020D3F8E03003F008030393D0
:103CC000039B03F06FFE0FB030BD264B09A92846B9
:103CD000D3F8E02042F01002C3F8E020D3F8E0303F
:103CE00003F010030493049B03F05CFE0FB030BD9F
:103CF0001C4B09A92846D3F8E02042F02002C3F863
:103D0000E020D3F8E03003F020030593059B03F097
:103D100049FE0FB030BD134B09A92846D3F8E02067
:103D200042F04002C3F8E020D3F8E03003F0400353
:103D30000693069B03F036FE0FB030BD094B09A970
:103D40002846D3F8E02042F08002C3F8E020D3F800
:103D5000E03003F080030793079B03F023FE0FB0CE
:103D600030BD00BF0044025870B506460D4602F053
:103D700051FC0446304602F055FC2A1E01462046FE
:103D800018BF0122BDE8704004F01AB800231222C7
:103D900070B586B0CDE9022304930368032B01D8E4
:103DA00004230593061D841D304602F033FC0546AE
:103DB000304602F037FC034601A92846019303F080
:103DC000F1FD204602F026FC034620461C4602F088
:103DD00029FC01A903462046019303F0E3FD06B048
:103DE00070BD00BF634A0368934210B58CB028D001
:103DF000614A934258D0614A934200F09480604AED
:103E0000934201D00CB010BD5E4C5F48D4F8E03056
:103E100043F00203C4F8E030D4F8E03003F00203CA
:103E20000A930A9BFFF7B2FFD4F8F43043F0800303
:103E3000C4F8F430D4F8F43003F080030B930B9BF8
:103E4000E0E7504C5148D4F8E03043F00203C4F8A6
:103E5000E030D4F8E03003F002030193019BFFF758
:103E600095FFD4F8E83000221F2043F400131146D8
:103E7000C4F8E830D4F8E83003F400130293029B4E
:103E8000D4F8D83043F00103C4F8D830D4F8D8308F
:103E900003F001030393039B02F008FD1F200CB005
:103EA000BDE8104002F040BD364C3948D4F8E0304F
:103EB00043F08003C4F8E030D4F8E03003F080032E
:103EC0000493049BD4F8E03043F00203C4F8E030DC
:103ED000D4F8E03003F002030593059BFFF756FF8B
:103EE000D4F8E8300022212043F480031146C4F8BE
:103EF000E830D4F8E83003F480030693069BD4F846
:103F0000D83043F00103C4F8D830D4F8D83003F0E7
:103F100001030793079B02F0C9FC21200CB0BDE808
:103F2000104002F001BD1B48FFF730FF154B002287
:103F30004820D3F8E840114644F40004C3F8E840B0
:103F4000D3F8E84004F400040894089CD3F8D8405F
:103F500044F00104C3F8D840D3F8D83003F001038B
:103F60000993099B02F0A2FC48200CB0BDE8104068
:103F700002F0DABC0054004000580040005C0040F1
:103F8000001C005800440258BCAC002434AA002491
:103F90000CAB0024E4AB00242DE9F0431A4B87B0AE
:103FA00000254FF010099E46EC46184BFF22E046D4
:103FB00067461A700EF118060EF13004CDE900556F
:103FC000CDE90255ADF80090BCE80F00CDE90455ED
:103FD000AEE80F009CE803000095ADF800908EE875
:103FE0000300B8E80F000FC69CE803000095ADF889
:103FF000009086E803000FCF0FC49CE8030084E81C
:10400000030007B0BDE8F0832001002430AA00249B
:1040100010B5EFF3108472B6084B1A78120602D569
:1040200004B962B610BD1B78D82205485BB202FB0A
:104030000300143003F064F9F2E700BF30AA002453
:1040400034AA0024014804F053BD00BFC0AA0024D4
:10405000014804F04DBD00BF98AB0024014804F0B6
:1040600047BD00BF70AC00242DE9F0430F68D82491
:104070003F4D85B007FB04F4032F05EB04030360F9
:1040800040DCCB680E46012B3CD84DD04FF0D80811
:10409000B646DFF8FC9008FB0758BEE80F00C446A0
:1040A000ACE80F00DEF800300DF1100ECCF8003057
:1040B000D8F808C099E80F000EE90F000EEB87034F
:1040C000BCF1010F53F8103CC8F88C3031D0BCF172
:1040D000020F42D0BCF1000F35D0317C8C34D82394
:1040E000002201202C4403FB07534900C3E92602A8
:1040F000C3F894102046C3E92822C3E92A2204F019
:10410000E9FA18B1012005B0BDE8F0830146204668
:1041100004F0FAFC0028F5D10146204604F01EFD0B
:10412000003818BF0120EEE70B7C103B672BADD9A0
:10413000E8E701F0B3FF0F4B98420CBF0E4B0F4B5B
:10414000C8F89030C9E701F0A9FF0A4B98420CBFAC
:104150000B4B0C4BC8F89030BFE701F09FFF054BAD
:1041600098420CBF084B094BC8F89030B5E700BF28
:1041700034AA0024000E27072D0FB0303211D020B2
:104180005F4390608A62E030200BA0101A09801013
:104190005C5901082DE9F041D0F8008082B00D464D
:1041A00017461E4608F18C04204604F0A9FC20287E
:1041B000FAD1D8F80C3073B96D002046089C33460C
:1041C0003A46A9B2009404F0DBFA003818BF012087
:1041D00002B0BDE8F081089B32463946204604F023
:1041E000A3FBF2E7044B10221A7483F8E82083F84B
:1041F000C02183F89822704734AA002430B50023E8
:1042000095B04FF48071062204460B9306921393E7
:10421000CDE90C13CDE90E33CDE9113301F042FFA6
:1042200007282BD004F1100541F2883206A9284650
:1042300005F0E6FB28B10123184684F85C3015B080
:1042400030BD0222022306A92846CDE90023102210
:104250000123CDE9022300224FF48003CDE904239A
:1042600005224FF0807306926A460F9341F288331D
:1042700005F032FD0028DED115B030BD032301204A
:1042800084F85C3015B030BD70B50023A4B04FF099
:1042900080724FF480750446ADF806300D93CDE979
:1042A00010320122CDE90E53CDE91223CDE91433AA
:1042B000002943D0F02300F1100508AEADF8063018
:1042C000C02341F2883231462846089305F098FB16
:1042D00028B10123184684F85C3024B070BD41F247
:1042E00088320DF10601284605F0F4FB034600284C
:1042F000EFD105224FF480711E93284616924FF09D
:1043000080721B9321931F9202AA9FED1F7BCDE920
:104310001C13CDE922338DED027B9FED1D7B41F215
:10432000883316A98DED047B9FED1B7B8DED067BFD
:1043300005F0D2FC0028CCD124B070BD00F11005EE
:1043400008AE612341F2883231462846089305F0D1
:1043500057FB0028BDD141F288320DF106012846F5
:1043600005F036FC0028B4D1BDF80630204623F015
:10437000780343F04003ADF80630FFF73FFF002815
:104380009ED0A6E7AFF3008000000000010000000F
:1043900010000000010000000000000000004000CC
:1043A0002DE9F04F00234FF4807501264FF08078FF
:1043B00004462DED028BABB08DF80730139321939B
:1043C000299314950E96CDF85C80CDE91533CDE98F
:1043D0001863CDE91A33CDE92253CDE92433CDE971
:1043E000273306231C9301F05DFE072808D004F153
:1043F000100741F288321CA9384605F001FB40B194
:104400000123184684F85C302BB0BDEC028BBDE86C
:10441000F08F4FF0020A4FF0020B4FF0050941F206
:10442000883308AA1CA93846CDF89480CDF870903E
:104430009FED2D8BCDE908AB4FF0000A4FF4800BB8
:104440008DED0A8BCDE90CAB05F046FC0028D7D1E9
:1044500041F2883238460EA905F0D2FA0028CFD1B1
:10446000402341F288320DF1070138468DF80730BC
:1044700005F030FB0028C3D141F288330EA902AA0F
:104480003846CDF83890CDF85C809FED197B8DEDE6
:10449000048BCDE906AB8DED027B05F01DFC0346D8
:1044A0000028ADD1CDF870904FF00109CDF894807F
:1044B0004FF00008219308AA29931CA93846229599
:1044C000CDE92333CDE9273341F288338DED0A8BD3
:1044D000CDE90CABCDE9088905F0FEFB002893D0AF
:1044E000304684F85C608FE7100000000100000097
:1044F00040000000400000002DE9F043A3B0044656
:104500000D4601F0CFFD072800F0A980286823465A
:10451000AA6804F11006696807C3AA8930461A80A0
:10452000257B677B05F04EFAE0B9574B012D4FF024
:104530000108E061236114BF4FF480134FF40003BE
:10454000C4E9058893FAA3F3B3FA83F34FF48079AF
:10455000013BC4F82490C4E90B002362304605F007
:10456000C5F938B10122134684F85C20184623B0FF
:10457000BDE8F08366230B90139041F2883206A9C0
:104580000693CDE90C90CDE90E00CDE9110030463F
:1045900005F036FA0028E5D1992341F2883206A9C0
:1045A0003046069305F02CFA0028DBD105231C9039
:1045B00019906A4614934FF08073219014A91D93AB
:1045C00041F288339FED2A7BCDE91A90CDE91F0097
:1045D0008DED007B9FED287B30468DED027B9FEDBE
:1045E000287B8DED047B05F077FB0028BAD12946A6
:1045F0002046FFF749FE0028B4D12046FFF7D0FE41
:1046000003460028AED1002FB0D1189330460027C2
:10461000002606AA14A9CDF86890CDE91F33EB2334
:1046200014934FF440631B934FF4005317934FF4CC
:1046300040431C93A0231693062319934FF08053F5
:1046400021934FF04073CDE906671D9305F0BCFB45
:10465000034600288AD0434684F85C8086E701231D
:104660000322184684F85C2023B0BDE8F08300BF25
:104670000000000001000000100000000100000028
:104680000000000000004000005000520000000048
:104690002DE9F0414173A2B0044601F003FD072863
:1046A00023D004F11005267B677B284605F08AF9A4
:1046B000D8B90123012EE061C4E90533524B2361CF
:1046C00014BF4FF480134FF4000393FAA3F3B3FA2B
:1046D00083F34FF48078013BC4F82480C4E90B00D5
:1046E0002362284605F002F968B102230022214620
:1046F000204684F85C306273FFF7FEFE0123184603
:1047000022B0BDE8F08166230B90139041F288320D
:1047100006A90693CDE90C80CDE90E00CDE9110084
:10472000284605F06DF90028DFD1992341F288323F
:1047300006A92846069305F063F90028D5D105237C
:104740001C9019906A4614934FF08073219014A91D
:104750001D9341F288339FED267BCDE91A80CDE988
:104760001F008DED007B9FED247B28468DED027BA5
:104770009FED237B8DED047B05F0AEFA0028B4D1CC
:1047800031462046FFF780FD0028AED12046FFF7D6
:1047900007FE03460028A8D1002FB0D118930026A9
:1047A000002706AA14A92846CDF86880CDE91F3352
:1047B0004FF0805321934FF040731D93EB231493DC
:1047C0004FF440631B934FF4005317934FF440434F
:1047D0001C93A02316930623CDE90667199305F0D1
:1047E000F3FA034600288AD07FE700BFAFF30080CA
:1047F00000000000010000001000000001000000A7
:104800000000000000004000005000522DE9F04F71
:10481000A3B004460E46914698469DF8B07001F04C
:1048200041FC072860D0637B012B2FD1B9F5807F35
:104830004FF480634A464FF0000528BF4FF4807262
:104840000D934FF4807A4FF400534FF0020B4FF06A
:1048500080792046079610920E950B951395CDF80A
:1048600030A0CDF818B00993CDF83C90CDE91155A2
:10487000FFF7C4FC0646E0B1637B002B3BD101236C
:10488000184684F85C3023B0BDE8F08F012521463E
:1048900020466573FFF730FE0028C7D000220223B0
:1048A00021462046627384F85C30FFF725FE2846D7
:1048B000E9E704F1100541F2883206A9284605F01F
:1048C0009FF838B3637B002BD9D02146204666730E
:1048D000FFF712FE0028D2D021462046667384F8E6
:1048E0005CB0FFF709FECAE70323012084F85C30BF
:1048F00023B0BDE8F08F214620466573FFF7FCFD2D
:104900000028BCD021462046657384F85CB0FFF7D0
:10491000F3FDB4E7414641F28832284605F0DAF863
:10492000034638B1637B002BA9D000212046FFF756
:10493000AFFEA4E700221993219305212846CDF864
:1049400068A0149114A9CDF87490CDE91B33CDE97A
:104950001F330123CDE9002310220123CDE90223D7
:1049600000224FF48003CDE9042341F288336A46E4
:1049700005F0B2F9014658B9002F84D0607B0028B9
:1049800081D02046FFF784FE003818BF01207AE767
:104990000122637B84F85C20002B3FF470AFC4E7F6
:1049A0002DE9F04F21F07048D5B211F0FF01834698
:1049B0001E462DED068BABB004957CD1FF2A40F24C
:1049C0005081110A1C46CDF8188003EB0123039394
:1049D0004B1E0593A8EB06039FEDB3AB9FEDB49B75
:1049E0009FEDB58B9A4613E09BF80D3043B15946C5
:1049F00058468BF80D80FFF77FFD002840F0498175
:104A000001238BF85C3004F58074039B9C4274D0C6
:104A100001F048FB072804EB0A0566D09BF80D302F
:104A2000012B09D00123594658468BF80D30FFF76A
:104A300063FD002840F0A1804FF480634FF0000830
:104A40000F9502274FF4807515934FF080764FF441
:104A500000535846CDF85880CDF84C80CDF86C8086
:104A6000149518950E9711931796CDE91988FFF7AD
:104A7000C5FB81460028B7D10BF1100841F28832FE
:104A80000EA9404604F0BCFF002854D09BF80D301E
:104A9000002BB5D0594658468BF80D90FFF72CFDEA
:104AA0000028ADD0594658468BF80D908BF85C70B5
:104AB000FFF722FDA4E7FF2AC1F5807700F2978077
:104AC000AF4280F08E80A5F5807400253A460C44F4
:104AD00000954146FFF79AFEF319224608EB0701BD
:104AE00058460095FFF792FE12E0032304F5807408
:104AF0008BF85C30039B9C428AD1DDF81880059BC3
:104B000008F5807808EB0321049B002B40F0AE8071
:104B10009BF80D304BB10024594658468BF80D4098
:104B2000FFF7EAFC002840F0A98000202BB0BDEC84
:104B3000068BBDE8F08F079041F28832214640464F
:104B400004F0C8FF814618B39BF80D20002A3FF4FB
:104B500057AF079B594658468BF80D30FFF7CCFCF2
:104B6000079B00283FF44CAF594658468BF80D3050
:104B70008BF85C70FFF7C0FC42E7002359465846AB
:104B80008BF80D3002238BF85C30FFF7B5FC3AE769
:104B90000523404608AA1CA91C9341F2883322959C
:104BA0002596CDF88490CDF8A490CDE92399CDE950
:104BB00027998DED08AB8DED0A9B8DED0C8B05F0E3
:104BC0008BF800283FF41FAF01238BF85C309BF873
:104BD0000D30002B3FF414AF49465846FFF758FDFF
:104BE0000EE7002441460094FFF710FE90E7A2F57F
:104BF00080744FF000093A463E442144CDF80090BD
:104C000047440D0ACCB24146FFF700FE6B1E0393EA
:104C1000DDB12B02A6EB070A07EB05283D460493FE
:104C20000AEB0503294605F580754FF48072584656
:104C3000CDF80090FFF7EAFD4545F1D1049B07F55B
:104C400080771E44039B07EB0327002C3FF460AFE3
:104C5000002033462246394600905846FFF7D6FDDD
:104C600056E700914146FFF7D1FD51E700201A4673
:104C7000234600905846FFF7C9FD49E702235946ED
:104C800058468BF80D408BF85C30FFF735FC01205F
:104C90004CE7594658468BF80D808BF85C70FFF74F
:104CA0002BFCADE6AFF30080000000000100000027
:104CB00010000000010000000000000000004000A3
:104CC0002DE9F043624CA3B00D46046001F0EAF90F
:104CD000072800F0A980286823466968AA6807C3E6
:104CE0001E46AB8926F8043B3046257B677B04F0E3
:104CF00069FEE0B9574B012D4FF00108E0612361D7
:104D000014BF4FF480134FF40003C4E9058893FAED
:104D1000A3F3B3FA83F34FF48079013BC4F82490F2
:104D2000C4E90B003046236204F0E0FD38B10122F3
:104D3000134684F85C20184623B0BDE8F083662350
:104D40000B90139041F2883206A90693CDE90C909E
:104D5000CDE90E00CDE91100304604F051FE0028E7
:104D6000E5D1992341F2883206A93046069304F032
:104D700047FE0028DBD105231C9019906A46149346
:104D80004FF08073219014A91D9341F288339FED59
:104D90002A7BCDE91A90CDE91F008DED007B9FEDB8
:104DA000287B30468DED027B9FED277B8DED047BCC
:104DB00004F092FF0028BAD129462046FFF764FA92
:104DC0000028B4D12046FFF7EBFA03460028AED105
:104DD000002FB0D1189330460027002606AA14A948
:104DE000CDF86890CDE91F33EB2314934FF4406363
:104DF0001B934FF4005317934FF440431C93A0238D
:104E00001693062319934FF0805321934FF040736C
:104E1000CDE906671D9304F0D7FF034600288AD02A
:104E2000434684F85C8086E701230322184684F811
:104E30005C2023B0BDE8F08300000000010000000A
:104E40001000000001000000000000000000400011
:104E500094AD0024005000520068FFF7A1BD00BFD0
:104E60002DE9F04F724E05680E40B2422DED048BD5
:104E7000A3B040F2A5804FF0000A4FF4800B91469A
:104E80009FED679B9FED688BD72300244FF48071C3
:104E90004FF4806206934FF4005301270C9109935D
:104EA00026F070430E940D920F940B940793CDE966
:104EB0001074CDE9124401F0F5F8072846D06B7B59
:104EC000BB4207D0294628466F73FFF715FB002821
:104ED00040F083802846FFF791F9044658B16B7B78
:104EE000002B38D10123184685F85C3023B0BDEC87
:104EF000048BBDE8F08F05F1100841F2883206A955
:104F0000404604F07DFD0746002835D06B7B002B22
:104F1000E8D0294628466C73FFF7EEFA18BB012249
:104F20006B7B85F85C20002BDCD0002429462846CA
:104F30006C73FFF7E1FA0028D4D0022329462846F3
:104F40006C7385F85C30FFF7D7FACBE703226B7BF5
:104F500085F85C20E7E70024294628466C73FFF7B4
:104F6000CBFA0028DBD00223294628466C7385F84B
:104F70005C30FFF7C1FAD2E74FF4807340466A46CF
:104F800014A91A930523199714934FF0807321974E
:104F90001D9341F28833CDE91B77CDE91F778DED65
:104FA000009B8DED028BCDE904AB04F095FE044629
:104FB000E8B96B7B53B906F58056B1453FF664AF4F
:104FC000002023B0BDEC048BBDE8F08F6873294648
:104FD0002846FFF791FA0028EDD0022329462846FB
:104FE0006C7385F85C30FFF787FA6B7B9BE70122D7
:104FF0006B7B85F85C20002B3FF474AF2946284674
:105000006F73FFF779FA002889D0022329462846D2
:105010006F7385F85C30FFF76FFA80E7AFF30080BD
:10502000000000000100000010000000010000006E
:1050300000F0FFFF2DE9F04F8FB0414B00240268D4
:1050400000AF9A427C63C7E90944C7E90B4403D027
:105050003C37BD46BDE8F08F3A4B40F609213A484F
:10506000EB46D3F8D42007F11C0607F1220A4FF0D3
:10507000020942F480424FF00308C3F8D420D3F869
:10508000D42002F48042BA60BA68D3F8E02042F03B
:105090004002C3F8E020D3F8E02002F04002FA60BA
:1050A000FA68D3F8E02042F02002C3F8E020D3F8F9
:1050B000E02002F020023A613A69D3F8E02042F0A1
:1050C0001002C3F8E020D3F8E02002F010027A6169
:1050D0007A69D3F8E02042F00202C3F8E020D3F866
:1050E000E030F86103F002033984BB61174B7B6049
:1050F000BB697B6853F8040F7B6001F08BFA7B6817
:105100000546186801F08EFA16F8013B786207F13F
:1051100024012846C7F830807B63C7E90A9402F06F
:1051200041FC5645E5D100225C20114601F0BEFB52
:105130005C2001F0F9FB3C37DD46BD46BDE8F08F51
:1051400000500052004402580A0A0909F0AD002438
:10515000114B02689A4200D07047104A70B5D2F8DD
:10516000D4300F4C23F4804304F11806C2F8D43035
:1051700054F8040F01F04EFA0546206801F052FA87
:105180000146284602F04EFDB442F1D15C20BDE854
:10519000704001F0D7BB00BF0050005200440258DD
:1051A000F0AD0024014804F09BBE00BFA4AD002474
:1051B000084B1A1D981D03F1080110B49C1C9A6637
:1051C00003F10A02C3E91834C3E91B015DF8044B7B
:1051D0005A67704794AD002438B5036871B9026A04
:1051E00000F1280500F5AC74012A0CBF0021402114
:1051F0008BBB1D4B5722C0F858310DE0426A00F1BD
:10520000C00500F5E874012A0CBF00214021EBB174
:10521000164B5A22C0F8D03100232046C4E90121A0
:105220004FF480524FF48061636262614FF48042B8
:10523000C4E903314FF48073C4E906234FF400330B
:10524000236201F0E5FC58B1FFBEFEE7084B58228F
:10525000C0F8D031E0E7074B5922C0F85831DBE7FE
:10526000C5E92044A56338BD10000240700002402B
:1052700028000240580002402DE9F043821D0546F7
:105280008BB0031D05F10A010830CDE9052305F1B6
:105290000C02AB69CDE907010992002B3DD0EB6907
:1052A000B3FA83F84FEA58180123022205AE0AAF79
:1052B0004FF006090393CDE9012356F8044B2B79EF
:1052C0002278934216D02B68F3B1012B02D1F2B1B0
:1052D0000A230493204601F0A5F9034620460093D3
:1052E00001F098F9694602F05DFBBE42E5D10BB0D2
:1052F000BDE8F083697963789942E4D1B8F1000F91
:10530000F3D02B68002BE0D1CDF81090E2E7637862
:10531000022B14BF0A230823DBE74FF00108C3E781
:10532000534A0368934230B505468BB055D02032BE
:10533000934252D04F4A934204D02032934201D03C
:105340000BB030BD4C4C4D48D4F8E03043F0010375
:10535000C4F8E030D4F8E03003F001030593059B76
:10536000D4F8E03043F00803C4F8E030D4F8E0307B
:1053700003F008030693069BD4F8E03043F04003A3
:10538000C4F8E030D4F8E03003F040030793079B03
:10539000D4F8F03043F40003C4F8F030D4F8F0301F
:1053A00003F400030893089BFFF766FFD4F8D83096
:1053B000296843F001032F4A3048C4F8D830891ACD
:1053C000D4F8D83018BF012103F001030993099BD9
:1053D0000BB0BDE83040FFF7FFBE274C2848D4F89B
:1053E000E03043F00103C4F8E030D4F8E03003F0DB
:1053F00001030093009BD4F8E03043F01003C4F89D
:10540000E030D4F8E03003F010030193019BD4F8AE
:10541000E03043F04003C4F8E030D4F8E03003F06B
:1054200040030293029BD4F8F03043F48003C4F8A5
:10543000F030D4F8F03003F480030393039BFFF7BC
:105440001BFFD4F8D830296843F00103084A0C4800
:10545000C4F8D830891AD4F8D83018BF012103F025
:1054600001030493049B0BB0BDE83040FFF7B4BECA
:1054700004580140045C01400044025868B0002414
:105480000CAE0024014801F03BBF00BF64AF002414
:10549000014801F035BF00BFDCAF0024014801F036
:1054A0002FBF00BFC0B10024014801F029BF00BFD9
:1054B00038B200241A4A0368934210B40BD0203249
:1054C000934208D0174A934216D02032934213D009
:1054D0005DF8044B7047144B0022D3F85442C3F8D4
:1054E0005822002CF4D0D3F84802D3E99312234673
:1054F0005DF8044B520818470B4B0022D3F8B04418
:10550000C3F8B424002CE3D0D3F8AC24D3F8A81407
:10551000D3F8A404520823465DF8044B184700BF93
:1055200004580140045C01400CAE0024184A036892
:10553000934210B40BD02032934208D0154A9342C4
:1055400017D02032934214D05DF8044B7047124BB1
:10555000D3E994245208C3F85822002CF4D0D3E99C
:105560009201234601EB820100EB82005DF8044BBF
:105570001847094BD3F8AC24D3F8B0445208C3F809
:10558000B424002CE0D0D3F8A814D3F8A404E8E79E
:1055900004580140045C01400CAE002400000000EF
:1055A0002DE9F04F0C684FF41776754F87B004FB68
:1055B00006F6012C07EB060AC0F800A000F3A08055
:1055C0000D468E464FF00008D44669A3D3E9002368
:1055D00069A1D1E90001CDE9022306ABCAF85082E6
:1055E00003EB8403CDE9040153F810BC53F8083CE5
:1055F000CAE992880193BEE80F00ACE80F00BEE84C
:105600000F00ACE80F00019B9EE80300CAF828B029
:10561000CAF8C0308CE803002B69042B0CD8DFE8F3
:1056200003F0737D879103004FF41773554A03FB12
:1056300004739A64C3F8E020AA692B6A002A43D055
:10564000002B4FF4177308BF022203FB047318BF2B
:105650000322DA6201221A63EA696B6A002A40D1E6
:10566000191E4FF4177318BF012103FB0473C3E91C
:1056700031126B69022B05D8434A12F80380434A62
:1056800052F823904FF4177306F12800424649461A
:1056900003FB04740023384463646363E365C4F864
:1056A000DC30C4F8CC30C4F8F430C4E90F33C4E9BA
:1056B0001533C4E93533C4E93B33022306F0B2FCA9
:1056C000002849D0FFBEFEE7191E4FF4177318BF1C
:1056D000012103FB0473C3E90B12EA696B6A002A18
:1056E000BED0002B4FF4177308BF022203FB0473D4
:1056F00018BF0322C3F8C4200122C3F8C820B8E7AA
:10570000012007B0BDE8F08F4FF417734FF4FA5241
:1057100003FB04739A64C3F8E0208DE74FF417731A
:105720004FF47A5203FB04739A64C3F8E02083E7D2
:105730004FF417734FF4FA4203FB04739A64C3F8EF
:10574000E02079E74FF417734BF6803203FB0473C4
:105750009A64C3F8E0206FE706F1C00002234246D6
:105760004946384406F05EFC0028CAD0FFBEFEE77A
:1057700004580140045C014024580140245C01406D
:105780000CAE0024007701009059010894590108DB
:105790000068704770B5046882B015460E46C4F8BC
:1057A0005032C4E99212069AC4F85422A269012A1E
:1057B00026D0626A012A9AB211D0294604F1C000AB
:1057C000019206F0EBFC236A019A012B10D02946C6
:1057D00004F1280006F0E2FC002002B070BD04F1E4
:1057E000C000019206F06CFD236A019A012BEED1F4
:1057F000314604F1280006F063FD002002B070BDC0
:10580000226A012A9AB211D0294604F12800019295
:1058100006F0C4FC636A019A012B10D0294604F1FA
:10582000C00006F0BBFC002002B070BD04F12800EF
:10583000019206F045FD636A019A012BEED13146D3
:1058400004F1C00006F03CFD002002B070BD00BFB6
:1058500003681B69042B05D8044A02EB830393ED0C
:10586000000A70479FED020A704700BFA059010867
:1058700000803B470368D3F858027047714A0368B9
:1058800011698B4200B587B04BD0916E8B4200F00E
:10589000B680D2F8C0108B4200F0B380D2F8181155
:1058A0008B4200F0B080B3F1804F1ED0664A934225
:1058B0000DD0664A934200F0A880654A934200F0FA
:1058C000B280644A93421ED007B05DF804FB624B7D
:1058D000D3F8E82042F00202C3F8E820D3F8E83019
:1058E00003F002030293029BEEE75B4BD3F8E82040
:1058F00042F00102C3F8E820D3F8E83003F00103D6
:105900000193019BE0E7544BD3F8E82042F01002EA
:10591000C3F8E820D3F8E83003F010030593059BA3
:10592000D2E700205821B3F1804F01FB0022127B07
:105930001ED045498B4235D044498B4248D044491A
:105940008B42BED1444BD3F8E81041F00801C3F8B4
:10595000E810D3F8E83003F008030493049B002A0E
:10596000B2D0322000220F2100F0A0FF322014E03C
:10597000394BD3F8E81041F00101C3F8E810D3F82F
:10598000E83003F001030193019B002A9CD01C2006
:1059900000220F2100F08AFF1C2007B05DF804EB05
:1059A00000F0C2BF2C4BD3F8E81041F00201C3F85D
:1059B000E810D3F8E83003F002030293029B002AB8
:1059C00082D01D2000220F2100F070FF1D20E4E78F
:1059D000214BD3F8E81041F00401C3F8E810D3F8E4
:1059E000E83003F004030393039B002A3FF46CAFF9
:1059F0001E2000220F2100F059FF1E20CDE70120BC
:105A000090E702208EE703208CE7134BD3F8E820C1
:105A100042F00402C3F8E820D3F8E83003F00403AE
:105A20000393039B50E70C4BD3F8E82042F00802A5
:105A3000C3F8E820D3F8E83003F008030493049B8C
:105A400042E700BFC4B20024000400400008004048
:105A5000000C004000100040004402580F4B026848
:105A600019698A420BD0996E8A4211D0D3F8C010BE
:105A70008A420FD0D3F818118A420DD07047002106
:105A8000582202FB01331A6D002AF7D0586D1047D7
:105A90000121F5E70221F3E70321F1E7C4B2002475
:105AA000014806F019BF00BFD4B20024014806F037
:105AB00013BF00BF2CB30024014806F00DBF00BF88
:105AC00084B30024014806F007BF00BFDCB3002404
:105AD000F0B54FF0580C0F682E4D8DB00CFB07FC45
